{
  "abi": [
    {
      "inputs": [
        {
          "internalType": "string",
          "name": "_uri",
          "type": "string"
        },
        {
          "internalType": "address",
          "name": "_mothership",
          "type": "address"
        }
      ],
      "stateMutability": "nonpayable",
      "type": "constructor"
    },
    {
      "anonymous": false,
      "inputs": [
        {
          "indexed": true,
          "internalType": "address",
          "name": "account",
          "type": "address"
        },
        {
          "indexed": true,
          "internalType": "address",
          "name": "operator",
          "type": "address"
        },
        {
          "indexed": false,
          "internalType": "bool",
          "name": "approved",
          "type": "bool"
        }
      ],
      "name": "ApprovalForAll",
      "type": "event"
    },
    {
      "anonymous": false,
      "inputs": [
        {
          "indexed": false,
          "internalType": "address",
          "name": "market",
          "type": "address"
        },
        {
          "indexed": false,
          "internalType": "uint256",
          "name": "positionId",
          "type": "uint256"
        },
        {
          "indexed": false,
          "internalType": "uint256",
          "name": "oi",
          "type": "uint256"
        },
        {
          "indexed": false,
          "internalType": "uint256",
          "name": "debt",
          "type": "uint256"
        }
      ],
      "name": "Build",
      "type": "event"
    },
    {
      "anonymous": false,
      "inputs": [
        {
          "indexed": false,
          "internalType": "uint256",
          "name": "positionId",
          "type": "uint256"
        },
        {
          "indexed": false,
          "internalType": "uint256",
          "name": "oi",
          "type": "uint256"
        },
        {
          "indexed": false,
          "internalType": "uint256",
          "name": "reward",
          "type": "uint256"
        },
        {
          "indexed": false,
          "internalType": "address",
          "name": "rewarded",
          "type": "address"
        }
      ],
      "name": "Liquidate",
      "type": "event"
    },
    {
      "anonymous": false,
      "inputs": [
        {
          "indexed": true,
          "internalType": "address",
          "name": "operator",
          "type": "address"
        },
        {
          "indexed": true,
          "internalType": "address",
          "name": "from",
          "type": "address"
        },
        {
          "indexed": true,
          "internalType": "address",
          "name": "to",
          "type": "address"
        },
        {
          "indexed": false,
          "internalType": "uint256[]",
          "name": "ids",
          "type": "uint256[]"
        },
        {
          "indexed": false,
          "internalType": "uint256[]",
          "name": "values",
          "type": "uint256[]"
        }
      ],
      "name": "TransferBatch",
      "type": "event"
    },
    {
      "anonymous": false,
      "inputs": [
        {
          "indexed": true,
          "internalType": "address",
          "name": "operator",
          "type": "address"
        },
        {
          "indexed": true,
          "internalType": "address",
          "name": "from",
          "type": "address"
        },
        {
          "indexed": true,
          "internalType": "address",
          "name": "to",
          "type": "address"
        },
        {
          "indexed": false,
          "internalType": "uint256",
          "name": "id",
          "type": "uint256"
        },
        {
          "indexed": false,
          "internalType": "uint256",
          "name": "value",
          "type": "uint256"
        }
      ],
      "name": "TransferSingle",
      "type": "event"
    },
    {
      "anonymous": false,
      "inputs": [
        {
          "indexed": false,
          "internalType": "string",
          "name": "value",
          "type": "string"
        },
        {
          "indexed": true,
          "internalType": "uint256",
          "name": "id",
          "type": "uint256"
        }
      ],
      "name": "URI",
      "type": "event"
    },
    {
      "anonymous": false,
      "inputs": [
        {
          "indexed": false,
          "internalType": "address",
          "name": "market",
          "type": "address"
        },
        {
          "indexed": false,
          "internalType": "uint256",
          "name": "positionId",
          "type": "uint256"
        },
        {
          "indexed": false,
          "internalType": "uint256",
          "name": "oi",
          "type": "uint256"
        },
        {
          "indexed": false,
          "internalType": "uint256",
          "name": "debt",
          "type": "uint256"
        }
      ],
      "name": "Unwind",
      "type": "event"
    },
    {
      "anonymous": false,
      "inputs": [
        {
          "indexed": false,
          "internalType": "uint256",
          "name": "feesCollected",
          "type": "uint256"
        },
        {
          "indexed": false,
          "internalType": "uint256",
          "name": "feesBurned",
          "type": "uint256"
        },
        {
          "indexed": false,
          "internalType": "uint256",
          "name": "liquidationsCollected",
          "type": "uint256"
        },
        {
          "indexed": false,
          "internalType": "uint256",
          "name": "liquidationsBurned",
          "type": "uint256"
        }
      ],
      "name": "Update",
      "type": "event"
    },
    {
      "anonymous": false,
      "inputs": [
        {
          "indexed": false,
          "internalType": "string",
          "name": "k",
          "type": "string"
        },
        {
          "indexed": false,
          "internalType": "uint256",
          "name": "v",
          "type": "uint256"
        }
      ],
      "name": "log",
      "type": "event"
    },
    {
      "anonymous": false,
      "inputs": [
        {
          "indexed": false,
          "internalType": "string",
          "name": "k",
          "type": "string"
        },
        {
          "indexed": false,
          "internalType": "address",
          "name": "v",
          "type": "address"
        }
      ],
      "name": "log_addr",
      "type": "event"
    },
    {
      "inputs": [
        {
          "internalType": "address",
          "name": "account",
          "type": "address"
        },
        {
          "internalType": "uint256",
          "name": "id",
          "type": "uint256"
        }
      ],
      "name": "balanceOf",
      "outputs": [
        {
          "internalType": "uint256",
          "name": "",
          "type": "uint256"
        }
      ],
      "stateMutability": "view",
      "type": "function"
    },
    {
      "inputs": [
        {
          "internalType": "address[]",
          "name": "accounts",
          "type": "address[]"
        },
        {
          "internalType": "uint256[]",
          "name": "ids",
          "type": "uint256[]"
        }
      ],
      "name": "balanceOfBatch",
      "outputs": [
        {
          "internalType": "uint256[]",
          "name": "",
          "type": "uint256[]"
        }
      ],
      "stateMutability": "view",
      "type": "function"
    },
    {
      "inputs": [
        {
          "internalType": "address",
          "name": "_market",
          "type": "address"
        },
        {
          "internalType": "uint256",
          "name": "_collateral",
          "type": "uint256"
        },
        {
          "internalType": "uint256",
          "name": "_leverage",
          "type": "uint256"
        },
        {
          "internalType": "bool",
          "name": "_isLong",
          "type": "bool"
        },
        {
          "internalType": "uint256",
          "name": "_oiMinimum",
          "type": "uint256"
        }
      ],
      "name": "build",
      "outputs": [
        {
          "internalType": "uint256",
          "name": "positionId_",
          "type": "uint256"
        }
      ],
      "stateMutability": "nonpayable",
      "type": "function"
    },
    {
      "inputs": [],
      "name": "disburse",
      "outputs": [],
      "stateMutability": "nonpayable",
      "type": "function"
    },
    {
      "inputs": [
        {
          "internalType": "uint256",
          "name": "id",
          "type": "uint256"
        }
      ],
      "name": "exists",
      "outputs": [
        {
          "internalType": "bool",
          "name": "",
          "type": "bool"
        }
      ],
      "stateMutability": "view",
      "type": "function"
    },
    {
      "inputs": [],
      "name": "fees",
      "outputs": [
        {
          "internalType": "uint256",
          "name": "",
          "type": "uint256"
        }
      ],
      "stateMutability": "view",
      "type": "function"
    },
    {
      "inputs": [
        {
          "internalType": "address",
          "name": "account",
          "type": "address"
        },
        {
          "internalType": "address",
          "name": "operator",
          "type": "address"
        }
      ],
      "name": "isApprovedForAll",
      "outputs": [
        {
          "internalType": "bool",
          "name": "",
          "type": "bool"
        }
      ],
      "stateMutability": "view",
      "type": "function"
    },
    {
      "inputs": [
        {
          "internalType": "uint256",
          "name": "_positionId",
          "type": "uint256"
        },
        {
          "internalType": "address",
          "name": "_rewardsTo",
          "type": "address"
        }
      ],
      "name": "liquidate",
      "outputs": [],
      "stateMutability": "nonpayable",
      "type": "function"
    },
    {
      "inputs": [],
      "name": "liquidations",
      "outputs": [
        {
          "internalType": "uint256",
          "name": "",
          "type": "uint256"
        }
      ],
      "stateMutability": "view",
      "type": "function"
    },
    {
      "inputs": [
        {
          "internalType": "address",
          "name": "_market",
          "type": "address"
        }
      ],
      "name": "marginMaintenance",
      "outputs": [
        {
          "internalType": "uint256",
          "name": "marginMaintenance_",
          "type": "uint256"
        }
      ],
      "stateMutability": "view",
      "type": "function"
    },
    {
      "inputs": [
        {
          "internalType": "address",
          "name": "_market",
          "type": "address"
        }
      ],
      "name": "marginRewardRate",
      "outputs": [
        {
          "internalType": "uint256",
          "name": "marginRewardRate_",
          "type": "uint256"
        }
      ],
      "stateMutability": "view",
      "type": "function"
    },
    {
      "inputs": [
        {
          "internalType": "address",
          "name": "",
          "type": "address"
        }
      ],
      "name": "marketInfo",
      "outputs": [
        {
          "internalType": "uint256",
          "name": "marginMaintenance",
          "type": "uint256"
        },
        {
          "internalType": "uint256",
          "name": "marginRewardRate",
          "type": "uint256"
        },
        {
          "internalType": "uint256",
          "name": "maxLeverage",
          "type": "uint256"
        }
      ],
      "stateMutability": "view",
      "type": "function"
    },
    {
      "inputs": [
        {
          "internalType": "address",
          "name": "_market",
          "type": "address"
        }
      ],
      "name": "maxLeverage",
      "outputs": [
        {
          "internalType": "uint256",
          "name": "maxLeverage_",
          "type": "uint256"
        }
      ],
      "stateMutability": "view",
      "type": "function"
    },
    {
      "inputs": [],
      "name": "mothership",
      "outputs": [
        {
          "internalType": "contract IOverlayV1Mothership",
          "name": "",
          "type": "address"
        }
      ],
      "stateMutability": "view",
      "type": "function"
    },
    {
      "inputs": [],
      "name": "ovl",
      "outputs": [
        {
          "internalType": "contract IOverlayTokenNew",
          "name": "",
          "type": "address"
        }
      ],
      "stateMutability": "view",
      "type": "function"
    },
    {
      "inputs": [
        {
          "internalType": "uint256",
          "name": "",
          "type": "uint256"
        }
      ],
      "name": "positions",
      "outputs": [
        {
          "internalType": "address",
          "name": "market",
          "type": "address"
        },
        {
          "internalType": "bool",
          "name": "isLong",
          "type": "bool"
        },
        {
          "internalType": "uint256",
          "name": "leverage",
          "type": "uint256"
        },
        {
          "internalType": "uint256",
          "name": "pricePoint",
          "type": "uint256"
        },
        {
          "internalType": "uint256",
          "name": "oiShares",
          "type": "uint256"
        },
        {
          "internalType": "uint256",
          "name": "debt",
          "type": "uint256"
        },
        {
          "internalType": "uint256",
          "name": "cost",
          "type": "uint256"
        }
      ],
      "stateMutability": "view",
      "type": "function"
    },
    {
      "inputs": [
        {
          "internalType": "address",
          "name": "from",
          "type": "address"
        },
        {
          "internalType": "address",
          "name": "to",
          "type": "address"
        },
        {
          "internalType": "uint256[]",
          "name": "ids",
          "type": "uint256[]"
        },
        {
          "internalType": "uint256[]",
          "name": "amounts",
          "type": "uint256[]"
        },
        {
          "internalType": "bytes",
          "name": "data",
          "type": "bytes"
        }
      ],
      "name": "safeBatchTransferFrom",
      "outputs": [],
      "stateMutability": "nonpayable",
      "type": "function"
    },
    {
      "inputs": [
        {
          "internalType": "address",
          "name": "from",
          "type": "address"
        },
        {
          "internalType": "address",
          "name": "to",
          "type": "address"
        },
        {
          "internalType": "uint256",
          "name": "id",
          "type": "uint256"
        },
        {
          "internalType": "uint256",
          "name": "amount",
          "type": "uint256"
        },
        {
          "internalType": "bytes",
          "name": "data",
          "type": "bytes"
        }
      ],
      "name": "safeTransferFrom",
      "outputs": [],
      "stateMutability": "nonpayable",
      "type": "function"
    },
    {
      "inputs": [
        {
          "internalType": "address",
          "name": "operator",
          "type": "address"
        },
        {
          "internalType": "bool",
          "name": "approved",
          "type": "bool"
        }
      ],
      "name": "setApprovalForAll",
      "outputs": [],
      "stateMutability": "nonpayable",
      "type": "function"
    },
    {
      "inputs": [
        {
          "internalType": "address",
          "name": "_market",
          "type": "address"
        },
        {
          "internalType": "uint256",
          "name": "_marginMaintenance",
          "type": "uint256"
        },
        {
          "internalType": "uint256",
          "name": "_marginRewardRate",
          "type": "uint256"
        },
        {
          "internalType": "uint256",
          "name": "_maxLeverage",
          "type": "uint256"
        }
      ],
      "name": "setMarketInfo",
      "outputs": [],
      "stateMutability": "nonpayable",
      "type": "function"
    },
    {
      "inputs": [
        {
          "internalType": "bytes4",
          "name": "interfaceId",
          "type": "bytes4"
        }
      ],
      "name": "supportsInterface",
      "outputs": [
        {
          "internalType": "bool",
          "name": "",
          "type": "bool"
        }
      ],
      "stateMutability": "view",
      "type": "function"
    },
    {
      "inputs": [
        {
          "internalType": "uint256",
          "name": "id",
          "type": "uint256"
        }
      ],
      "name": "totalSupply",
      "outputs": [
        {
          "internalType": "uint256",
          "name": "",
          "type": "uint256"
        }
      ],
      "stateMutability": "view",
      "type": "function"
    },
    {
      "inputs": [
        {
          "internalType": "uint256",
          "name": "_positionId",
          "type": "uint256"
        },
        {
          "internalType": "uint256",
          "name": "_shares",
          "type": "uint256"
        }
      ],
      "name": "unwind",
      "outputs": [],
      "stateMutability": "nonpayable",
      "type": "function"
    },
    {
      "inputs": [
        {
          "internalType": "uint256",
          "name": "",
          "type": "uint256"
        }
      ],
      "name": "uri",
      "outputs": [
        {
          "internalType": "string",
          "name": "",
          "type": "string"
        }
      ],
      "stateMutability": "view",
      "type": "function"
    },
    {
      "inputs": [
        {
          "internalType": "uint256",
          "name": "_positionId",
          "type": "uint256"
        }
      ],
      "name": "value",
      "outputs": [
        {
          "internalType": "uint256",
          "name": "value_",
          "type": "uint256"
        }
      ],
      "stateMutability": "view",
      "type": "function"
    }
  ],
  "bytecode": "60c06040523480156200001157600080fd5b5060405162003b3738038062003b37833981016040819052620000349162000341565b81620000408162000249565b50806001600160a01b03166080816001600160a01b031660601b81525050806001600160a01b031663b29fa9c36040518163ffffffff1660e01b815260040160206040518083038186803b1580156200009857600080fd5b505afa158015620000ad573d6000803e3d6000fd5b505050506040513d601f19601f82011682018060405250810190620000d391906200031a565b6001600160601b0319606091821b1660a09081526040805160e0810182526000808252602082018181529282018181529482018181526080830182815294830182815260c08401838152600780546001810182559452935160069093027fa66cc928b5edb82af9bd49922954155ab7b0942694bea4ce44661d9a8736c6888101805496511515600160a01b026001600160a81b03199097166001600160a01b0395909516949094179590951790925594517fa66cc928b5edb82af9bd49922954155ab7b0942694bea4ce44661d9a8736c68984015593517fa66cc928b5edb82af9bd49922954155ab7b0942694bea4ce44661d9a8736c68a83015591517fa66cc928b5edb82af9bd49922954155ab7b0942694bea4ce44661d9a8736c68b82015591517fa66cc928b5edb82af9bd49922954155ab7b0942694bea4ce44661d9a8736c68c830155517fa66cc928b5edb82af9bd49922954155ab7b0942694bea4ce44661d9a8736c68d90910155506200049e9050565b80516200025e90600290602084019062000262565b5050565b828054620002709062000432565b90600052602060002090601f016020900481019282620002945760008555620002df565b82601f10620002af57805160ff1916838001178555620002df565b82800160010185558215620002df579182015b82811115620002df578251825591602001919060010190620002c2565b50620002ed929150620002f1565b5090565b5b80821115620002ed5760008155600101620002f2565b8051620003158162000485565b919050565b6000602082840312156200032d57600080fd5b81516200033a8162000485565b9392505050565b600080604083850312156200035557600080fd5b82516001600160401b03808211156200036d57600080fd5b818501915085601f8301126200038257600080fd5b8151818111156200039757620003976200046f565b604051601f8201601f19908116603f01168101908382118183101715620003c257620003c26200046f565b81604052828152602093508884848701011115620003df57600080fd5b600091505b82821015620004035784820184015181830185015290830190620003e4565b82821115620004155760008484830101525b95506200042791505085820162000308565b925050509250929050565b600181811c908216806200044757607f821691505b602082108114156200046957634e487b7160e01b600052602260045260246000fd5b50919050565b634e487b7160e01b600052604160045260246000fd5b6001600160a01b03811681146200049b57600080fd5b50565b60805160601c60a05160601c613627620005106000396000818161039f01528181610b2a0152818161103b015281816115f5015281816116bc015281816119810152611a1101526000818161025301528181610c3701528181610d40015281816114b8015261185201526136276000f3fe608060405234801561001057600080fd5b50600436106101a25760003560e01c80639a371c84116100ee578063bd85b03911610097578063c5a46ee611610071578063c5a46ee614610457578063e985e9c51461046a578063f242432a146104a6578063ffdbdb08146104b957600080fd5b8063bd85b039146103c1578063c0386611146103e1578063c43513861461040d57600080fd5b8063a750a585116100c8578063a750a5851461037f578063abc6fd0b14610392578063b29fa9c31461039a57600080fd5b80639a371c841461035a5780639af1d35a14610363578063a22cb4651461036c57600080fd5b80634e1273f411610150578063661b7af21161012a578063661b7af2146102e257806396dfb05f146102f557806399fbab881461030857600080fd5b80634e1273f41461028d5780634f558e79146102ad5780635fae8b3d146102cf57600080fd5b80631bf87541116101815780631bf87541146102105780632eb2c2d6146102395780634187b7d61461024e57600080fd5b8062fdd58e146101a757806301ffc9a7146101cd5780630e89341c146101f0575b600080fd5b6101ba6101b5366004612f40565b6104e5565b6040519081526020015b60405180910390f35b6101e06101db3660046130e9565b61057f565b60405190151581526020016101c4565b6102036101fe366004613123565b6105cf565b6040516101c491906133a3565b6101ba61021e366004612da5565b6001600160a01b031660009081526006602052604090205490565b61024c610247366004612dfb565b610663565b005b6102757f000000000000000000000000000000000000000000000000000000000000000081565b6040516001600160a01b0390911681526020016101c4565b6102a061029b366004612ff9565b610705565b6040516101c4919061336b565b6101e06102bb366004613123565b600090815260036020526040902054151590565b61024c6102dd366004613155565b61082f565b61024c6102f0366004612fbe565b610bfc565b6101ba610303366004612f6c565b610d1e565b61031b610316366004613123565b611127565b604080516001600160a01b0390981688529515156020880152948601939093526060850191909152608084015260a083015260c082015260e0016101c4565b6101ba60095481565b6101ba60085481565b61024c61037a366004612f12565b611184565b61024c61038d36600461317a565b61125b565b61024c61184b565b6102757f000000000000000000000000000000000000000000000000000000000000000081565b6101ba6103cf366004613123565b60009081526003602052604090205490565b6101ba6103ef366004612da5565b6001600160a01b031660009081526006602052604090206002015490565b61043c61041b366004612da5565b60066020526000908152604090208054600182015460029092015490919083565b604080519384526020840192909252908201526060016101c4565b6101ba610465366004613123565b611ad3565b6101e0610478366004612dc2565b6001600160a01b03918216600090815260016020908152604080832093909416825291909152205460ff1690565b61024c6104b4366004612ea9565b611bb1565b6101ba6104c7366004612da5565b6001600160a01b031660009081526006602052604090206001015490565b60006001600160a01b0383166105565760405162461bcd60e51b815260206004820152602b60248201527f455243313135353a2062616c616e636520717565727920666f7220746865207a60448201526a65726f206164647265737360a81b60648201526084015b60405180910390fd5b506000818152602081815260408083206001600160a01b03861684529091529020545b92915050565b60006001600160e01b03198216636cdb3d1360e11b14806105b057506001600160e01b031982166303a24d0760e21b145b8061057957506301ffc9a760e01b6001600160e01b0319831614610579565b6060600280546105de9061344a565b80601f016020809104026020016040519081016040528092919081815260200182805461060a9061344a565b80156106575780601f1061062c57610100808354040283529160200191610657565b820191906000526020600020905b81548152906001019060200180831161063a57829003601f168201915b50505050509050919050565b6001600160a01b03851633148061067f575061067f8533610478565b6106f15760405162461bcd60e51b815260206004820152603260248201527f455243313135353a207472616e736665722063616c6c6572206973206e6f742060448201527f6f776e6572206e6f7220617070726f7665640000000000000000000000000000606482015260840161054d565b6106fe8585858585611c38565b5050505050565b6060815183511461076a5760405162461bcd60e51b815260206004820152602960248201527f455243313135353a206163636f756e747320616e6420696473206c656e677468604482015268040dad2e6dac2e8c6d60bb1b606482015260840161054d565b6000835167ffffffffffffffff811115610786576107866134f9565b6040519080825280602002602001820160405280156107af578160200160208202803683370190505b50905060005b8451811015610827576107fa8582815181106107d3576107d36134e3565b60200260200101518583815181106107ed576107ed6134e3565b60200260200101516104e5565b82828151811061080c5761080c6134e3565b6020908102919091010152610820816134b2565b90506107b5565b509392505050565b600060078381548110610844576108446134e3565b90600052602060002090600602019050806003015460001061089b5760405162461bcd60e51b815260206004820152601060248201526f13d593158c4e9b1a5c5d5a59185d195960821b604482015260640161054d565b8054600282015460405163200eab6960e11b815260ff600160a01b84041692600092839283926001600160a01b03169163401d56d2916108ea9188916004019115158252602082015260400190565b606060405180830381600087803b15801561090457600080fd5b505af1158015610918573d6000803e3d6000fd5b505050506040513d601f19601f8201168201806040525081019061093c91906131d5565b87546001600160a01b03166000908152600660209081526040918290208251606081018452815480825260018301549382019390935260029091015492810192909252939650919450925090610999908790869086908690611e96565b6109e55760405162461bcd60e51b815260206004820152601360248201527f4f564c56313a216c6971756964617461626c6500000000000000000000000000604482015260640161054d565b60006109f387868686611f03565b87549091506001600160a01b031663e8fd2b7787610a128a8989611f79565b8a600301546000868d60050154610a299190613433565b6040516001600160e01b031960e088901b1681529415156004860152602485019390935260448401919091526064830152608482015260a401600060405180830381600087803b158015610a7c57600080fd5b505af1158015610a90573d6000803e3d6000fd5b5050600060038a0181905560048a018190556020850151909250610ab691508390611fed565b9050610ac28183613433565b60096000828254610ad391906133da565b9091555050604080518b8152602081018890529081018290526001600160a01b038a1660608201527fa7dea6636c8da6757bedce766781fd072194b0e21c1bc9e1278495b571b850b19060800160405180910390a17f00000000000000000000000000000000000000000000000000000000000000006001600160a01b031663ddc88e968a83858c60050154610b699190613433565b6040516001600160e01b031960e086901b1681526001600160a01b03909316600484015260248301919091526044820152606401602060405180830381600087803b158015610bb757600080fd5b505af1158015610bcb573d6000803e3d6000fd5b505050506040513d601f19601f82011682018060405250810190610bef91906130cc565b5050505050505050505050565b604051632474521560e21b81527f1a6838efa4183e08fe3607359d1259272af9d4716f65e1a7b5921f78fd5a3c6a60048201523360248201527f00000000000000000000000000000000000000000000000000000000000000006001600160a01b0316906391d148549060440160206040518083038186803b158015610c8157600080fd5b505afa158015610c95573d6000803e3d6000fd5b505050506040513d601f19601f82011682018060405250810190610cb991906130cc565b610cf75760405162461bcd60e51b815260206004820152600f60248201526e27ab262b189d10b3b7bb32b93737b960891b604482015260640161054d565b6001600160a01b039093166000908152600660205260409020918255600182015560020155565b60405163eeec7d6f60e01b81526001600160a01b0386811660048301526000917f00000000000000000000000000000000000000000000000000000000000000009091169063eeec7d6f9060240160206040518083038186803b158015610d8457600080fd5b505afa158015610d98573d6000803e3d6000fd5b505050506040513d601f19601f82011682018060405250810190610dbc91906130cc565b610df85760405162461bcd60e51b815260206004820152600d60248201526c13d593158c4e885b585c9ad95d609a1b604482015260640161054d565b6001600160a01b038616600090815260066020526040902060020154841115610e535760405162461bcd60e51b815260206004820152600d60248201526c09eac98ac6274d8caec7cdac2f609b1b604482015260640161054d565b604051630f29383960e01b815283151560048201526024810186905260448101859052600090819081908190819081906001600160a01b038d1690630f2938399060640160c060405180830381600087803b158015610eb157600080fd5b505af1158015610ec5573d6000803e3d6000fd5b505050506040513d601f19601f82011682018060405250810190610ee99190613203565b95509550955095509550955087861015610f345760405162461bcd60e51b815260206004820152600c60248201526b27ab262b189d37b49e36b4b760a11b604482015260640161054d565b6000610f428d8b8d8561205b565b9050600060078281548110610f5957610f596134e3565b9060005260206000209060060201905087816003016000828254610f7d91906133da565b9250508190555086816005016000828254610f9891906133da565b9250508190555085816004016000828254610fb391906133da565b925050819055508460086000828254610fcc91906133da565b925050819055507f428b559deb78ae264f175a82b90ecac7f28acc5c0bbce329463bcf94aa5ffd538e838a8960405161102994939291906001600160a01b0394909416845260208401929092526040830152606082015260800190565b60405180910390a16001600160a01b037f00000000000000000000000000000000000000000000000000000000000000001663cddcab80333061106c898c6133da565b6040516001600160e01b031960e086901b1681526001600160a01b039384166004820152929091166024830152604482015260648101879052608401602060405180830381600087803b1580156110c257600080fd5b505af11580156110d6573d6000803e3d6000fd5b505050506040513d601f19601f820116820180604052508101906110fa91906130cc565b5061111633838a60405180602001604052806000815250612280565b509c9b505050505050505050505050565b6007818154811061113757600080fd5b60009182526020909120600690910201805460018201546002830154600384015460048501546005909501546001600160a01b0385169650600160a01b90940460ff169492939192909187565b336001600160a01b03831614156111ef5760405162461bcd60e51b815260206004820152602960248201527f455243313135353a2073657474696e6720617070726f76616c20737461747573604482015268103337b91039b2b63360b91b606482015260840161054d565b3360008181526001602090815260408083206001600160a01b03871680855290835292819020805460ff191686151590811790915590519081529192917f17307eab39ab6107e8899845ad3d59bd9653f200f220920489ca2b5937696c31910160405180910390a35050565b806000108015611274575061127033836104e5565b8111155b6112b05760405162461bcd60e51b815260206004820152600d60248201526c4f564c56313a2173686172657360981b604482015260640161054d565b6000600783815481106112c5576112c56134e3565b90600052602060002090600602019050806003015460001061131c5760405162461bcd60e51b815260206004820152601060248201526f13d593158c4e9b1a5c5d5a59185d195960821b604482015260640161054d565b8054600282015460405163200eab6960e11b8152600160a01b830460ff16151560048201526024810191909152600091829182916001600160a01b03169063401d56d290604401606060405180830381600087803b15801561137d57600080fd5b505af1158015611391573d6000803e3d6000fd5b505050506040513d601f19601f820116820180604052508101906113b591906131d5565b92509250925060006113d38760009081526003602052604090205490565b9050856000826113e5888888886122b5565b6113ef908a613414565b6113f991906133f2565b905060008388600401548a61140e9190613414565b61141891906133f2565b905060008489600501548b61142d9190613414565b61143791906133f2565b90506000856114478b8b8b611f79565b611451908d613414565b61145b91906133f2565b8a54604080516001600160a01b039092168252602082018f90528101829052606081018590529091507fed2784480bdab74064f940b0fbead975d5ce4f0936822552f3b893e1646b22379060800160405180910390a1600061154e7f00000000000000000000000000000000000000000000000000000000000000006001600160a01b031663ddca3f436040518163ffffffff1660e01b815260040160206040518083038186803b15801561150f57600080fd5b505afa158015611523573d6000803e3d6000fd5b505050506040513d601f19601f82011682018060405250810190611547919061313c565b8690611fed565b9050600061155c8287613433565b905084811115611577576115708582613433565b905061157b565b5060005b816008600082825461158d91906133da565b92505081905550848c60040160008282546115a89190613433565b92505081905550838c60050160008282546115c39190613433565b92505081905550868c60030160008282546115de9190613433565b9091555050808410156116b2576001600160a01b037f00000000000000000000000000000000000000000000000000000000000000001663f854199133866116268186613433565b6040516001600160e01b031960e086901b1681526001600160a01b03909316600484015260248301919091526044820152606401602060405180830381600087803b15801561167457600080fd5b505af1158015611688573d6000803e3d6000fd5b505050506040513d601f19601f820116820180604052508101906116ac91906130cc565b50611775565b6001600160a01b037f00000000000000000000000000000000000000000000000000000000000000001663ddc88e9633836116ed8189613433565b6040516001600160e01b031960e086901b1681526001600160a01b03909316600484015260248301919091526044820152606401602060405180830381600087803b15801561173b57600080fd5b505af115801561174f573d6000803e3d6000fd5b505050506040513d601f19601f8201168201806040525081019061177391906130cc565b505b8b546001600160a01b0381169063e8fd2b7790600160a01b900460ff16858a8589106117a25760006117ac565b6117ac8987613433565b868a106117c2576117bd878b613433565b6117c5565b60005b6040516001600160e01b031960e088901b1681529415156004860152602485019390935260448401919091526064830152608482015260a401600060405180830381600087803b15801561181857600080fd5b505af115801561182c573d6000803e3d6000fd5b505050505050505050505050505050611846338484612321565b505050565b60008060007f00000000000000000000000000000000000000000000000000000000000000006001600160a01b03166384eb53a86040518163ffffffff1660e01b815260040160606040518083038186803b1580156118a957600080fd5b505afa1580156118bd573d6000803e3d6000fd5b505050506040513d601f19601f820116820180604052508101906118e1919061319c565b600854929550909350915060006118f88285611fed565b90506119048183613433565b60095490925060006119168288611fed565b90506119228183613433565b600060088190556009556040805186815260208101869052908101829052606081018390529092507fce49b138f2621300a7043a61f472ccfd643162bdf3efb11354e22d5273b77a719060800160405180910390a16001600160a01b037f000000000000000000000000000000000000000000000000000000000000000016639dc29fac306119b184876133da565b6040516001600160e01b031960e085901b1681526001600160a01b0390921660048301526024820152604401600060405180830381600087803b1580156119f757600080fd5b505af1158015611a0b573d6000803e3d6000fd5b505050507f00000000000000000000000000000000000000000000000000000000000000006001600160a01b031663a9059cbb868487611a4b91906133da565b6040516001600160e01b031960e085901b1681526001600160a01b0390921660048301526024820152604401602060405180830381600087803b158015611a9157600080fd5b505af1158015611aa5573d6000803e3d6000fd5b505050506040513d601f19601f82011682018060405250810190611ac991906130cc565b5050505050505050565b60008060078381548110611ae957611ae96134e3565b6000918252602082206006919091020180546002820154604051636261a6b960e01b8152600160a01b830460ff161515600482015260248101919091529193506001600160a01b03169190819081908490636261a6b99060440160606040518083038186803b158015611b5b57600080fd5b505afa158015611b6f573d6000803e3d6000fd5b505050506040513d601f19601f82011682018060405250810190611b9391906131d5565b91945092509050611ba685848484611f03565b979650505050505050565b6001600160a01b038516331480611bcd5750611bcd8533610478565b611c2b5760405162461bcd60e51b815260206004820152602960248201527f455243313135353a2063616c6c6572206973206e6f74206f776e6572206e6f7260448201526808185c1c1c9bdd995960ba1b606482015260840161054d565b6106fe8585858585612354565b8151835114611c9a5760405162461bcd60e51b815260206004820152602860248201527f455243313135353a2069647320616e6420616d6f756e7473206c656e677468206044820152670dad2e6dac2e8c6d60c31b606482015260840161054d565b6001600160a01b038416611cfe5760405162461bcd60e51b815260206004820152602560248201527f455243313135353a207472616e7366657220746f20746865207a65726f206164604482015264647265737360d81b606482015260840161054d565b3360005b8451811015611e28576000858281518110611d1f57611d1f6134e3565b602002602001015190506000858381518110611d3d57611d3d6134e3565b602090810291909101810151600084815280835260408082206001600160a01b038e168352909352919091205490915081811015611dd05760405162461bcd60e51b815260206004820152602a60248201527f455243313135353a20696e73756666696369656e742062616c616e636520666f60448201526939103a3930b739b332b960b11b606482015260840161054d565b6000838152602081815260408083206001600160a01b038e8116855292528083208585039055908b16825281208054849290611e0d9084906133da565b9250508190555050505080611e21906134b2565b9050611d02565b50846001600160a01b0316866001600160a01b0316826001600160a01b03167f4a39dc06d4c0dbc64b70af90fd698a233a518aa5d07e595d983b8c0526c8f7fb8787604051611e7892919061337e565b60405180910390a4611e8e8187878787876124fb565b505050505050565b6040805160e08101825286546001600160a01b0381168252600160a01b900460ff16151560208201526001870154918101919091526002860154606082015260038601546080820152600486015460a0820152600586015460c0820152600090611ba681878787876126b0565b6040805160e08101825285546001600160a01b0381168252600160a01b900460ff16151560208201526001860154918101919091526002850154606082015260038501546080820152600485015460a0820152600585015460c0820152600090611f6f818686866126e9565b9695505050505050565b6040805160e08101825284546001600160a01b0381168252600160a01b900460ff16151560208201526001850154918101919091526002840154606082015260038401546080820152600484015460a0820152600584015460c0820152600090611fe4818585612777565b95945050505050565b600080611ffa8385613414565b905061201b84158061201457508361201286846133f2565b145b60036127a2565b8061202a576000915050610579565b670de0b6b3a764000061203e600183613433565b61204891906133f2565b6120539060016133da565b915050610579565b60008084612080576001600160a01b0386166000908152600560205260409020612099565b6001600160a01b03861660009081526004602052604090205b90508060008581526020019081526020016000205491506000600783815481106120c5576120c56134e3565b906000526020600020906006020190508381600201541015612276576040805160e0810182526001600160a01b03808a168252881515602083019081529282018881526060830188815260006080850181815260a0860182815260c08701838152600780546001818101835595829052985160069099027fa66cc928b5edb82af9bd49922954155ab7b0942694bea4ce44661d9a8736c688810180549b511515600160a01b0274ffffffffffffffffffffffffffffffffffffffffff19909c169a909916999099179990991790965593517fa66cc928b5edb82af9bd49922954155ab7b0942694bea4ce44661d9a8736c68987015591517fa66cc928b5edb82af9bd49922954155ab7b0942694bea4ce44661d9a8736c68a86015590517fa66cc928b5edb82af9bd49922954155ab7b0942694bea4ce44661d9a8736c68b85015590517fa66cc928b5edb82af9bd49922954155ab7b0942694bea4ce44661d9a8736c68c84015590517fa66cc928b5edb82af9bd49922954155ab7b0942694bea4ce44661d9a8736c68d9092019190915590546122629190613433565b600086815260208490526040902081905592505b5050949350505050565b61228c848484846127b4565b600083815260036020526040812080548492906122aa9084906133da565b909155505050505050565b6040805160e08101825285546001600160a01b0381168252600160a01b900460ff16151560208201526001860154918101919091526002850154606082015260038501546080820152600485015460a0820152600585015460c0820152600090611f6f818686866128b5565b61232c8383836128d6565b6000828152600360205260408120805483929061234a908490613433565b9091555050505050565b6001600160a01b0384166123b85760405162461bcd60e51b815260206004820152602560248201527f455243313135353a207472616e7366657220746f20746865207a65726f206164604482015264647265737360d81b606482015260840161054d565b336123d18187876123c888612a50565b6106fe88612a50565b6000848152602081815260408083206001600160a01b038a168452909152902054838110156124555760405162461bcd60e51b815260206004820152602a60248201527f455243313135353a20696e73756666696369656e742062616c616e636520666f60448201526939103a3930b739b332b960b11b606482015260840161054d565b6000858152602081815260408083206001600160a01b038b81168552925280832087850390559088168252812080548692906124929084906133da565b909155505060408051868152602081018690526001600160a01b03808916928a821692918616917fc3d58168c5ae7397731d063d5bbf3d657854427343f4c083240f7aacaa2d0f62910160405180910390a46124f2828888888888612a9b565b50505050505050565b6001600160a01b0384163b15611e8e5760405163bc197c8160e01b81526001600160a01b0385169063bc197c819061253f90899089908890889088906004016132d5565b602060405180830381600087803b15801561255957600080fd5b505af1925050508015612589575060408051601f3d908101601f1916820190925261258691810190613106565b60015b61263f5761259561350f565b806308c379a014156125cf57506125aa61352b565b806125b557506125d1565b8060405162461bcd60e51b815260040161054d91906133a3565b505b60405162461bcd60e51b815260206004820152603460248201527f455243313135353a207472616e7366657220746f206e6f6e204552433131353560448201527f526563656976657220696d706c656d656e746572000000000000000000000000606482015260840161054d565b6001600160e01b0319811663bc197c8160e01b146124f25760405162461bcd60e51b815260206004820152602860248201527f455243313135353a204552433131353552656365697665722072656a656374656044820152676420746f6b656e7360c01b606482015260840161054d565b6000806126bf878787876126e9565b905060006126cc88612ba6565b905060006126da8286611fed565b90921098975050505050505050565b6000806126f7868686612777565b905085602001511561272e5761270d8184612bbc565b915061271d828760a00151612bf3565b6127279083613433565b915061276e565b61274081671bc16d674ec80000612bbc565b9150612764826127508386612bbc565b8860a0015161275f91906133da565b612bf3565b611f6f9083613433565b50949350505050565b600061279a82612794858760800151612bbc90919063ffffffff16565b90612c0b565b949350505050565b816127b0576127b081612c67565b5050565b6001600160a01b0384166128145760405162461bcd60e51b815260206004820152602160248201527f455243313135353a206d696e7420746f20746865207a65726f206164647265736044820152607360f81b606482015260840161054d565b33612825816000876123c888612a50565b6000848152602081815260408083206001600160a01b0389168452909152812080548592906128559084906133da565b909155505060408051858152602081018590526001600160a01b0380881692600092918516917fc3d58168c5ae7397731d063d5bbf3d657854427343f4c083240f7aacaa2d0f62910160405180910390a46106fe81600087878787612a9b565b6000806128c4868686866126e9565b90508560a0015181611f6f91906133da565b6001600160a01b0383166129385760405162461bcd60e51b815260206004820152602360248201527f455243313135353a206275726e2066726f6d20746865207a65726f206164647260448201526265737360e81b606482015260840161054d565b336129688185600061294987612a50565b61295287612a50565b5050604080516020810190915260009052505050565b6000838152602081815260408083206001600160a01b0388168452909152902054828110156129e55760405162461bcd60e51b8152602060048201526024808201527f455243313135353a206275726e20616d6f756e7420657863656564732062616c604482015263616e636560e01b606482015260840161054d565b6000848152602081815260408083206001600160a01b03898116808652918452828520888703905582518981529384018890529092908616917fc3d58168c5ae7397731d063d5bbf3d657854427343f4c083240f7aacaa2d0f62910160405180910390a45050505050565b60408051600180825281830190925260609160009190602080830190803683370190505090508281600081518110612a8a57612a8a6134e3565b602090810291909101015292915050565b6001600160a01b0384163b15611e8e5760405163f23a6e6160e01b81526001600160a01b0385169063f23a6e6190612adf9089908990889088908890600401613333565b602060405180830381600087803b158015612af957600080fd5b505af1925050508015612b29575060408051601f3d908101601f19168201909252612b2691810190613106565b60015b612b355761259561350f565b6001600160e01b0319811663f23a6e6160e01b146124f25760405162461bcd60e51b815260206004820152602860248201527f455243313135353a204552433131353552656365697665722072656a656374656044820152676420746f6b656e7360c01b606482015260840161054d565b60008160a001518260c0015161057991906133da565b600080612bc98385613414565b9050612be184158061201457508361201286846133f2565b61279a670de0b6b3a7640000826133f2565b6000818310612c025781612c04565b825b9392505050565b6000612c1a82151560046127a2565b82612c2757506000610579565b6000612c3b670de0b6b3a764000085613414565b9050612c5b670de0b6b3a7640000612c5386846133f2565b1460056127a2565b8261203e600183613433565b62461bcd60e51b6000908152602060045260076024526642414c23000030600a808404818106603090810160081b95839006959095019082900491820690940160101b939093010160c81b604452606490fd5b600082601f830112612ccb57600080fd5b81356020612cd8826133b6565b604051612ce58282613485565b8381528281019150858301600585901b87018401881015612d0557600080fd5b60005b85811015612d2457813584529284019290840190600101612d08565b5090979650505050505050565b600082601f830112612d4257600080fd5b813567ffffffffffffffff811115612d5c57612d5c6134f9565b604051612d73601f8301601f191660200182613485565b818152846020838601011115612d8857600080fd5b816020850160208301376000918101602001919091529392505050565b600060208284031215612db757600080fd5b8135612c04816135b5565b60008060408385031215612dd557600080fd5b8235612de0816135b5565b91506020830135612df0816135b5565b809150509250929050565b600080600080600060a08688031215612e1357600080fd5b8535612e1e816135b5565b94506020860135612e2e816135b5565b9350604086013567ffffffffffffffff80821115612e4b57600080fd5b612e5789838a01612cba565b94506060880135915080821115612e6d57600080fd5b612e7989838a01612cba565b93506080880135915080821115612e8f57600080fd5b50612e9c88828901612d31565b9150509295509295909350565b600080600080600060a08688031215612ec157600080fd5b8535612ecc816135b5565b94506020860135612edc816135b5565b93506040860135925060608601359150608086013567ffffffffffffffff811115612f0657600080fd5b612e9c88828901612d31565b60008060408385031215612f2557600080fd5b8235612f30816135b5565b91506020830135612df0816135cd565b60008060408385031215612f5357600080fd5b8235612f5e816135b5565b946020939093013593505050565b600080600080600060a08688031215612f8457600080fd5b8535612f8f816135b5565b945060208601359350604086013592506060860135612fad816135cd565b949793965091946080013592915050565b60008060008060808587031215612fd457600080fd5b8435612fdf816135b5565b966020860135965060408601359560600135945092505050565b6000806040838503121561300c57600080fd5b823567ffffffffffffffff8082111561302457600080fd5b818501915085601f83011261303857600080fd5b81356020613045826133b6565b6040516130528282613485565b8381528281019150858301600585901b870184018b101561307257600080fd5b600096505b8487101561309e57803561308a816135b5565b835260019690960195918301918301613077565b50965050860135925050808211156130b557600080fd5b506130c285828601612cba565b9150509250929050565b6000602082840312156130de57600080fd5b8151612c04816135cd565b6000602082840312156130fb57600080fd5b8135612c04816135db565b60006020828403121561311857600080fd5b8151612c04816135db565b60006020828403121561313557600080fd5b5035919050565b60006020828403121561314e57600080fd5b5051919050565b6000806040838503121561316857600080fd5b823591506020830135612df0816135b5565b6000806040838503121561318d57600080fd5b50508035926020909101359150565b6000806000606084860312156131b157600080fd5b835192506020840151915060408401516131ca816135b5565b809150509250925092565b6000806000606084860312156131ea57600080fd5b8351925060208401519150604084015190509250925092565b60008060008060008060c0878903121561321c57600080fd5b865195506020870151945060408701519350606087015192506080870151915060a087015190509295509295509295565b600081518084526020808501945080840160005b8381101561327d57815187529582019590820190600101613261565b509495945050505050565b6000815180845260005b818110156132ae57602081850181015186830182015201613292565b818111156132c0576000602083870101525b50601f01601f19169290920160200192915050565b60006001600160a01b03808816835280871660208401525060a0604083015261330160a083018661324d565b8281036060840152613313818661324d565b905082810360808401526133278185613288565b98975050505050505050565b60006001600160a01b03808816835280871660208401525084604083015283606083015260a06080830152611ba660a0830184613288565b602081526000612c04602083018461324d565b604081526000613391604083018561324d565b8281036020840152611fe4818561324d565b602081526000612c046020830184613288565b600067ffffffffffffffff8211156133d0576133d06134f9565b5060051b60200190565b600082198211156133ed576133ed6134cd565b500190565b60008261340f57634e487b7160e01b600052601260045260246000fd5b500490565b600081600019048311821515161561342e5761342e6134cd565b500290565b600082821015613445576134456134cd565b500390565b600181811c9082168061345e57607f821691505b6020821081141561347f57634e487b7160e01b600052602260045260246000fd5b50919050565b601f8201601f1916810167ffffffffffffffff811182821017156134ab576134ab6134f9565b6040525050565b60006000198214156134c6576134c66134cd565b5060010190565b634e487b7160e01b600052601160045260246000fd5b634e487b7160e01b600052603260045260246000fd5b634e487b7160e01b600052604160045260246000fd5b600060033d11156135285760046000803e5060005160e01c5b90565b600060443d10156135395790565b6040516003193d81016004833e81513d67ffffffffffffffff816024840111818411171561356957505050505090565b82850191508151818111156135815750505050505090565b843d870101602082850101111561359b5750505050505090565b6135aa60208286010187613485565b509095945050505050565b6001600160a01b03811681146135ca57600080fd5b50565b80151581146135ca57600080fd5b6001600160e01b0319811681146135ca57600080fdfea264697066735822122094e1aae841f270c1280c4d22e028addec13d19ad76212b937f3940e2df05b35b64736f6c63430008070033",
  "bytecodeSha1": "738c1b2ecea653c84498fc8478359a31afdd2b50",
  "compiler": {
    "evm_version": "london",
    "optimizer": {
      "enabled": true,
      "runs": 400
    },
    "version": "0.8.7+commit.e28d00a7"
  },
  "contractName": "OverlayV1OVLCollateral",
  "language": "Solidity",
  "natspec": {
    "kind": "dev",
    "methods": {
      "balanceOf(address,uint256)": {
        "details": "See {IERC1155-balanceOf}. Requirements: - `account` cannot be the zero address."
      },
      "balanceOfBatch(address[],uint256[])": {
        "details": "See {IERC1155-balanceOfBatch}. Requirements: - `accounts` and `ids` must have the same length."
      },
      "build(address,uint256,uint256,bool,uint256)": {
        "details": "This interacts with an Overlay Market to register oi and hold  positions on behalf of users.",
        "notice": "Build a position on Overlay with OVL collateral",
        "params": {
          "_collateral": "The amount of OVL to use as collateral in the position.",
          "_isLong": "Whether to take out a position on the long or short side.",
          "_leverage": "The amount of leverage to use in the position",
          "_market": "The address of the desired market to interact with.",
          "_oiMinimum": "Minimum acceptable amount of OI after impact and fees."
        },
        "returns": {
          "positionId_": "Id of the built position for on chain convenience."
        }
      },
      "disburse()": {
        "notice": "Disburses fees"
      },
      "exists(uint256)": {
        "details": "Indicates weither any token exist with a given id, or not."
      },
      "isApprovedForAll(address,address)": {
        "details": "See {IERC1155-isApprovedForAll}."
      },
      "liquidate(uint256,address)": {
        "details": "Interacts with an Overlay Market to exit all open interest associated with a liquidatable positoin.",
        "notice": "Liquidates an existing position.",
        "params": {
          "_positionId": "ID of the position being liquidated.",
          "_rewardsTo": "Address to send liquidation reward to."
        }
      },
      "safeBatchTransferFrom(address,address,uint256[],uint256[],bytes)": {
        "details": "See {IERC1155-safeBatchTransferFrom}."
      },
      "safeTransferFrom(address,address,uint256,uint256,bytes)": {
        "details": "See {IERC1155-safeTransferFrom}."
      },
      "setApprovalForAll(address,bool)": {
        "details": "See {IERC1155-setApprovalForAll}."
      },
      "supportsInterface(bytes4)": {
        "details": "See {IERC165-supportsInterface}."
      },
      "totalSupply(uint256)": {
        "details": "Total amount of tokens in with a given id."
      },
      "unwind(uint256,uint256)": {
        "details": "Interacts with a market contract to realize the PnL on a position.",
        "notice": "Unwinds shares of an existing position.",
        "params": {
          "_positionId": "Id of the position to be unwound.",
          "_shares": "Number of shars to unwind from the position."
        }
      },
      "uri(uint256)": {
        "details": "See {IERC1155MetadataURI-uri}. This implementation returns the same URI for *all* token types. It relies on the token type ID substitution mechanism https://eips.ethereum.org/EIPS/eip-1155#metadata[defined in the EIP]. Clients calling this function must replace the `\\{id\\}` substring with the actual token type ID."
      },
      "value(uint256)": {
        "details": "Gets price frame, total open interest and  total open interest shares from an Overlay market.",
        "notice": "Retrieves required information from market contract  to calculate position value with.",
        "params": {
          "_positionId": "ID of position to determine value of."
        },
        "returns": {
          "value_": "Value of the position"
        }
      }
    },
    "version": 1
  },
  "opcodes": "PUSH1 0x80 PUSH1 0x40 MSTORE CALLVALUE DUP1 ISZERO PUSH2 0x10 JUMPI PUSH1 0x0 DUP1 REVERT JUMPDEST POP PUSH1 0x4 CALLDATASIZE LT PUSH2 0x1A2 JUMPI PUSH1 0x0 CALLDATALOAD PUSH1 0xE0 SHR DUP1 PUSH4 0x9A371C84 GT PUSH2 0xEE JUMPI DUP1 PUSH4 0xBD85B039 GT PUSH2 0x97 JUMPI DUP1 PUSH4 0xC5A46EE6 GT PUSH2 0x71 JUMPI DUP1 PUSH4 0xC5A46EE6 EQ PUSH2 0x457 JUMPI DUP1 PUSH4 0xE985E9C5 EQ PUSH2 0x46A JUMPI DUP1 PUSH4 0xF242432A EQ PUSH2 0x4A6 JUMPI DUP1 PUSH4 0xFFDBDB08 EQ PUSH2 0x4B9 JUMPI PUSH1 0x0 DUP1 REVERT JUMPDEST DUP1 PUSH4 0xBD85B039 EQ PUSH2 0x3C1 JUMPI DUP1 PUSH4 0xC0386611 EQ PUSH2 0x3E1 JUMPI DUP1 PUSH4 0xC4351386 EQ PUSH2 0x40D JUMPI PUSH1 0x0 DUP1 REVERT JUMPDEST DUP1 PUSH4 0xA750A585 GT PUSH2 0xC8 JUMPI DUP1 PUSH4 0xA750A585 EQ PUSH2 0x37F JUMPI DUP1 PUSH4 0xABC6FD0B EQ PUSH2 0x392 JUMPI DUP1 PUSH4 0xB29FA9C3 EQ PUSH2 0x39A JUMPI PUSH1 0x0 DUP1 REVERT JUMPDEST DUP1 PUSH4 0x9A371C84 EQ PUSH2 0x35A JUMPI DUP1 PUSH4 0x9AF1D35A EQ PUSH2 0x363 JUMPI DUP1 PUSH4 0xA22CB465 EQ PUSH2 0x36C JUMPI PUSH1 0x0 DUP1 REVERT JUMPDEST DUP1 PUSH4 0x4E1273F4 GT PUSH2 0x150 JUMPI DUP1 PUSH4 0x661B7AF2 GT PUSH2 0x12A JUMPI DUP1 PUSH4 0x661B7AF2 EQ PUSH2 0x2E2 JUMPI DUP1 PUSH4 0x96DFB05F EQ PUSH2 0x2F5 JUMPI DUP1 PUSH4 0x99FBAB88 EQ PUSH2 0x308 JUMPI PUSH1 0x0 DUP1 REVERT JUMPDEST DUP1 PUSH4 0x4E1273F4 EQ PUSH2 0x28D JUMPI DUP1 PUSH4 0x4F558E79 EQ PUSH2 0x2AD JUMPI DUP1 PUSH4 0x5FAE8B3D EQ PUSH2 0x2CF JUMPI PUSH1 0x0 DUP1 REVERT JUMPDEST DUP1 PUSH4 0x1BF87541 GT PUSH2 0x181 JUMPI DUP1 PUSH4 0x1BF87541 EQ PUSH2 0x210 JUMPI DUP1 PUSH4 0x2EB2C2D6 EQ PUSH2 0x239 JUMPI DUP1 PUSH4 0x4187B7D6 EQ PUSH2 0x24E JUMPI PUSH1 0x0 DUP1 REVERT JUMPDEST DUP1 PUSH3 0xFDD58E EQ PUSH2 0x1A7 JUMPI DUP1 PUSH4 0x1FFC9A7 EQ PUSH2 0x1CD JUMPI DUP1 PUSH4 0xE89341C EQ PUSH2 0x1F0 JUMPI JUMPDEST PUSH1 0x0 DUP1 REVERT JUMPDEST PUSH2 0x1BA PUSH2 0x1B5 CALLDATASIZE PUSH1 0x4 PUSH2 0x2F40 JUMP JUMPDEST PUSH2 0x4E5 JUMP JUMPDEST PUSH1 0x40 MLOAD SWAP1 DUP2 MSTORE PUSH1 0x20 ADD JUMPDEST PUSH1 0x40 MLOAD DUP1 SWAP2 SUB SWAP1 RETURN JUMPDEST PUSH2 0x1E0 PUSH2 0x1DB CALLDATASIZE PUSH1 0x4 PUSH2 0x30E9 JUMP JUMPDEST PUSH2 0x57F JUMP JUMPDEST PUSH1 0x40 MLOAD SWAP1 ISZERO ISZERO DUP2 MSTORE PUSH1 0x20 ADD PUSH2 0x1C4 JUMP JUMPDEST PUSH2 0x203 PUSH2 0x1FE CALLDATASIZE PUSH1 0x4 PUSH2 0x3123 JUMP JUMPDEST PUSH2 0x5CF JUMP JUMPDEST PUSH1 0x40 MLOAD PUSH2 0x1C4 SWAP2 SWAP1 PUSH2 0x33A3 JUMP JUMPDEST PUSH2 0x1BA PUSH2 0x21E CALLDATASIZE PUSH1 0x4 PUSH2 0x2DA5 JUMP JUMPDEST PUSH1 0x1 PUSH1 0x1 PUSH1 0xA0 SHL SUB AND PUSH1 0x0 SWAP1 DUP2 MSTORE PUSH1 0x6 PUSH1 0x20 MSTORE PUSH1 0x40 SWAP1 KECCAK256 SLOAD SWAP1 JUMP JUMPDEST PUSH2 0x24C PUSH2 0x247 CALLDATASIZE PUSH1 0x4 PUSH2 0x2DFB JUMP JUMPDEST PUSH2 0x663 JUMP JUMPDEST STOP JUMPDEST PUSH2 0x275 PUSH32 0x0 DUP2 JUMP JUMPDEST PUSH1 0x40 MLOAD PUSH1 0x1 PUSH1 0x1 PUSH1 0xA0 SHL SUB SWAP1 SWAP2 AND DUP2 MSTORE PUSH1 0x20 ADD PUSH2 0x1C4 JUMP JUMPDEST PUSH2 0x2A0 PUSH2 0x29B CALLDATASIZE PUSH1 0x4 PUSH2 0x2FF9 JUMP JUMPDEST PUSH2 0x705 JUMP JUMPDEST PUSH1 0x40 MLOAD PUSH2 0x1C4 SWAP2 SWAP1 PUSH2 0x336B JUMP JUMPDEST PUSH2 0x1E0 PUSH2 0x2BB CALLDATASIZE PUSH1 0x4 PUSH2 0x3123 JUMP JUMPDEST PUSH1 0x0 SWAP1 DUP2 MSTORE PUSH1 0x3 PUSH1 0x20 MSTORE PUSH1 0x40 SWAP1 KECCAK256 SLOAD ISZERO ISZERO SWAP1 JUMP JUMPDEST PUSH2 0x24C PUSH2 0x2DD CALLDATASIZE PUSH1 0x4 PUSH2 0x3155 JUMP JUMPDEST PUSH2 0x82F JUMP JUMPDEST PUSH2 0x24C PUSH2 0x2F0 CALLDATASIZE PUSH1 0x4 PUSH2 0x2FBE JUMP JUMPDEST PUSH2 0xBFC JUMP JUMPDEST PUSH2 0x1BA PUSH2 0x303 CALLDATASIZE PUSH1 0x4 PUSH2 0x2F6C JUMP JUMPDEST PUSH2 0xD1E JUMP JUMPDEST PUSH2 0x31B PUSH2 0x316 CALLDATASIZE PUSH1 0x4 PUSH2 0x3123 JUMP JUMPDEST PUSH2 0x1127 JUMP JUMPDEST PUSH1 0x40 DUP1 MLOAD PUSH1 0x1 PUSH1 0x1 PUSH1 0xA0 SHL SUB SWAP1 SWAP9 AND DUP9 MSTORE SWAP6 ISZERO ISZERO PUSH1 0x20 DUP9 ADD MSTORE SWAP5 DUP7 ADD SWAP4 SWAP1 SWAP4 MSTORE PUSH1 0x60 DUP6 ADD SWAP2 SWAP1 SWAP2 MSTORE PUSH1 0x80 DUP5 ADD MSTORE PUSH1 0xA0 DUP4 ADD MSTORE PUSH1 0xC0 DUP3 ADD MSTORE PUSH1 0xE0 ADD PUSH2 0x1C4 JUMP JUMPDEST PUSH2 0x1BA PUSH1 0x9 SLOAD DUP2 JUMP JUMPDEST PUSH2 0x1BA PUSH1 0x8 SLOAD DUP2 JUMP JUMPDEST PUSH2 0x24C PUSH2 0x37A CALLDATASIZE PUSH1 0x4 PUSH2 0x2F12 JUMP JUMPDEST PUSH2 0x1184 JUMP JUMPDEST PUSH2 0x24C PUSH2 0x38D CALLDATASIZE PUSH1 0x4 PUSH2 0x317A JUMP JUMPDEST PUSH2 0x125B JUMP JUMPDEST PUSH2 0x24C PUSH2 0x184B JUMP JUMPDEST PUSH2 0x275 PUSH32 0x0 DUP2 JUMP JUMPDEST PUSH2 0x1BA PUSH2 0x3CF CALLDATASIZE PUSH1 0x4 PUSH2 0x3123 JUMP JUMPDEST PUSH1 0x0 SWAP1 DUP2 MSTORE PUSH1 0x3 PUSH1 0x20 MSTORE PUSH1 0x40 SWAP1 KECCAK256 SLOAD SWAP1 JUMP JUMPDEST PUSH2 0x1BA PUSH2 0x3EF CALLDATASIZE PUSH1 0x4 PUSH2 0x2DA5 JUMP JUMPDEST PUSH1 0x1 PUSH1 0x1 PUSH1 0xA0 SHL SUB AND PUSH1 0x0 SWAP1 DUP2 MSTORE PUSH1 0x6 PUSH1 0x20 MSTORE PUSH1 0x40 SWAP1 KECCAK256 PUSH1 0x2 ADD SLOAD SWAP1 JUMP JUMPDEST PUSH2 0x43C PUSH2 0x41B CALLDATASIZE PUSH1 0x4 PUSH2 0x2DA5 JUMP JUMPDEST PUSH1 0x6 PUSH1 0x20 MSTORE PUSH1 0x0 SWAP1 DUP2 MSTORE PUSH1 0x40 SWAP1 KECCAK256 DUP1 SLOAD PUSH1 0x1 DUP3 ADD SLOAD PUSH1 0x2 SWAP1 SWAP3 ADD SLOAD SWAP1 SWAP2 SWAP1 DUP4 JUMP JUMPDEST PUSH1 0x40 DUP1 MLOAD SWAP4 DUP5 MSTORE PUSH1 0x20 DUP5 ADD SWAP3 SWAP1 SWAP3 MSTORE SWAP1 DUP3 ADD MSTORE PUSH1 0x60 ADD PUSH2 0x1C4 JUMP JUMPDEST PUSH2 0x1BA PUSH2 0x465 CALLDATASIZE PUSH1 0x4 PUSH2 0x3123 JUMP JUMPDEST PUSH2 0x1AD3 JUMP JUMPDEST PUSH2 0x1E0 PUSH2 0x478 CALLDATASIZE PUSH1 0x4 PUSH2 0x2DC2 JUMP JUMPDEST PUSH1 0x1 PUSH1 0x1 PUSH1 0xA0 SHL SUB SWAP2 DUP3 AND PUSH1 0x0 SWAP1 DUP2 MSTORE PUSH1 0x1 PUSH1 0x20 SWAP1 DUP2 MSTORE PUSH1 0x40 DUP1 DUP4 KECCAK256 SWAP4 SWAP1 SWAP5 AND DUP3 MSTORE SWAP2 SWAP1 SWAP2 MSTORE KECCAK256 SLOAD PUSH1 0xFF AND SWAP1 JUMP JUMPDEST PUSH2 0x24C PUSH2 0x4B4 CALLDATASIZE PUSH1 0x4 PUSH2 0x2EA9 JUMP JUMPDEST PUSH2 0x1BB1 JUMP JUMPDEST PUSH2 0x1BA PUSH2 0x4C7 CALLDATASIZE PUSH1 0x4 PUSH2 0x2DA5 JUMP JUMPDEST PUSH1 0x1 PUSH1 0x1 PUSH1 0xA0 SHL SUB AND PUSH1 0x0 SWAP1 DUP2 MSTORE PUSH1 0x6 PUSH1 0x20 MSTORE PUSH1 0x40 SWAP1 KECCAK256 PUSH1 0x1 ADD SLOAD SWAP1 JUMP JUMPDEST PUSH1 0x0 PUSH1 0x1 PUSH1 0x1 PUSH1 0xA0 SHL SUB DUP4 AND PUSH2 0x556 JUMPI PUSH1 0x40 MLOAD PUSH3 0x461BCD PUSH1 0xE5 SHL DUP2 MSTORE PUSH1 0x20 PUSH1 0x4 DUP3 ADD MSTORE PUSH1 0x2B PUSH1 0x24 DUP3 ADD MSTORE PUSH32 0x455243313135353A2062616C616E636520717565727920666F7220746865207A PUSH1 0x44 DUP3 ADD MSTORE PUSH11 0x65726F2061646472657373 PUSH1 0xA8 SHL PUSH1 0x64 DUP3 ADD MSTORE PUSH1 0x84 ADD JUMPDEST PUSH1 0x40 MLOAD DUP1 SWAP2 SUB SWAP1 REVERT JUMPDEST POP PUSH1 0x0 DUP2 DUP2 MSTORE PUSH1 0x20 DUP2 DUP2 MSTORE PUSH1 0x40 DUP1 DUP4 KECCAK256 PUSH1 0x1 PUSH1 0x1 PUSH1 0xA0 SHL SUB DUP7 AND DUP5 MSTORE SWAP1 SWAP2 MSTORE SWAP1 KECCAK256 SLOAD JUMPDEST SWAP3 SWAP2 POP POP JUMP JUMPDEST PUSH1 0x0 PUSH1 0x1 PUSH1 0x1 PUSH1 0xE0 SHL SUB NOT DUP3 AND PUSH4 0x6CDB3D13 PUSH1 0xE1 SHL EQ DUP1 PUSH2 0x5B0 JUMPI POP PUSH1 0x1 PUSH1 0x1 PUSH1 0xE0 SHL SUB NOT DUP3 AND PUSH4 0x3A24D07 PUSH1 0xE2 SHL EQ JUMPDEST DUP1 PUSH2 0x579 JUMPI POP PUSH4 0x1FFC9A7 PUSH1 0xE0 SHL PUSH1 0x1 PUSH1 0x1 PUSH1 0xE0 SHL SUB NOT DUP4 AND EQ PUSH2 0x579 JUMP JUMPDEST PUSH1 0x60 PUSH1 0x2 DUP1 SLOAD PUSH2 0x5DE SWAP1 PUSH2 0x344A JUMP JUMPDEST DUP1 PUSH1 0x1F ADD PUSH1 0x20 DUP1 SWAP2 DIV MUL PUSH1 0x20 ADD PUSH1 0x40 MLOAD SWAP1 DUP2 ADD PUSH1 0x40 MSTORE DUP1 SWAP3 SWAP2 SWAP1 DUP2 DUP2 MSTORE PUSH1 0x20 ADD DUP3 DUP1 SLOAD PUSH2 0x60A SWAP1 PUSH2 0x344A JUMP JUMPDEST DUP1 ISZERO PUSH2 0x657 JUMPI DUP1 PUSH1 0x1F LT PUSH2 0x62C JUMPI PUSH2 0x100 DUP1 DUP4 SLOAD DIV MUL DUP4 MSTORE SWAP2 PUSH1 0x20 ADD SWAP2 PUSH2 0x657 JUMP JUMPDEST DUP3 ADD SWAP2 SWAP1 PUSH1 0x0 MSTORE PUSH1 0x20 PUSH1 0x0 KECCAK256 SWAP1 JUMPDEST DUP2 SLOAD DUP2 MSTORE SWAP1 PUSH1 0x1 ADD SWAP1 PUSH1 0x20 ADD DUP1 DUP4 GT PUSH2 0x63A JUMPI DUP3 SWAP1 SUB PUSH1 0x1F AND DUP3 ADD SWAP2 JUMPDEST POP POP POP POP POP SWAP1 POP SWAP2 SWAP1 POP JUMP JUMPDEST PUSH1 0x1 PUSH1 0x1 PUSH1 0xA0 SHL SUB DUP6 AND CALLER EQ DUP1 PUSH2 0x67F JUMPI POP PUSH2 0x67F DUP6 CALLER PUSH2 0x478 JUMP JUMPDEST PUSH2 0x6F1 JUMPI PUSH1 0x40 MLOAD PUSH3 0x461BCD PUSH1 0xE5 SHL DUP2 MSTORE PUSH1 0x20 PUSH1 0x4 DUP3 ADD MSTORE PUSH1 0x32 PUSH1 0x24 DUP3 ADD MSTORE PUSH32 0x455243313135353A207472616E736665722063616C6C6572206973206E6F7420 PUSH1 0x44 DUP3 ADD MSTORE PUSH32 0x6F776E6572206E6F7220617070726F7665640000000000000000000000000000 PUSH1 0x64 DUP3 ADD MSTORE PUSH1 0x84 ADD PUSH2 0x54D JUMP JUMPDEST PUSH2 0x6FE DUP6 DUP6 DUP6 DUP6 DUP6 PUSH2 0x1C38 JUMP JUMPDEST POP POP POP POP POP JUMP JUMPDEST PUSH1 0x60 DUP2 MLOAD DUP4 MLOAD EQ PUSH2 0x76A JUMPI PUSH1 0x40 MLOAD PUSH3 0x461BCD PUSH1 0xE5 SHL DUP2 MSTORE PUSH1 0x20 PUSH1 0x4 DUP3 ADD MSTORE PUSH1 0x29 PUSH1 0x24 DUP3 ADD MSTORE PUSH32 0x455243313135353A206163636F756E747320616E6420696473206C656E677468 PUSH1 0x44 DUP3 ADD MSTORE PUSH9 0x40DAD2E6DAC2E8C6D PUSH1 0xBB SHL PUSH1 0x64 DUP3 ADD MSTORE PUSH1 0x84 ADD PUSH2 0x54D JUMP JUMPDEST PUSH1 0x0 DUP4 MLOAD PUSH8 0xFFFFFFFFFFFFFFFF DUP2 GT ISZERO PUSH2 0x786 JUMPI PUSH2 0x786 PUSH2 0x34F9 JUMP JUMPDEST PUSH1 0x40 MLOAD SWAP1 DUP1 DUP3 MSTORE DUP1 PUSH1 0x20 MUL PUSH1 0x20 ADD DUP3 ADD PUSH1 0x40 MSTORE DUP1 ISZERO PUSH2 0x7AF JUMPI DUP2 PUSH1 0x20 ADD PUSH1 0x20 DUP3 MUL DUP1 CALLDATASIZE DUP4 CALLDATACOPY ADD SWAP1 POP JUMPDEST POP SWAP1 POP PUSH1 0x0 JUMPDEST DUP5 MLOAD DUP2 LT ISZERO PUSH2 0x827 JUMPI PUSH2 0x7FA DUP6 DUP3 DUP2 MLOAD DUP2 LT PUSH2 0x7D3 JUMPI PUSH2 0x7D3 PUSH2 0x34E3 JUMP JUMPDEST PUSH1 0x20 MUL PUSH1 0x20 ADD ADD MLOAD DUP6 DUP4 DUP2 MLOAD DUP2 LT PUSH2 0x7ED JUMPI PUSH2 0x7ED PUSH2 0x34E3 JUMP JUMPDEST PUSH1 0x20 MUL PUSH1 0x20 ADD ADD MLOAD PUSH2 0x4E5 JUMP JUMPDEST DUP3 DUP3 DUP2 MLOAD DUP2 LT PUSH2 0x80C JUMPI PUSH2 0x80C PUSH2 0x34E3 JUMP JUMPDEST PUSH1 0x20 SWAP1 DUP2 MUL SWAP2 SWAP1 SWAP2 ADD ADD MSTORE PUSH2 0x820 DUP2 PUSH2 0x34B2 JUMP JUMPDEST SWAP1 POP PUSH2 0x7B5 JUMP JUMPDEST POP SWAP4 SWAP3 POP POP POP JUMP JUMPDEST PUSH1 0x0 PUSH1 0x7 DUP4 DUP2 SLOAD DUP2 LT PUSH2 0x844 JUMPI PUSH2 0x844 PUSH2 0x34E3 JUMP JUMPDEST SWAP1 PUSH1 0x0 MSTORE PUSH1 0x20 PUSH1 0x0 KECCAK256 SWAP1 PUSH1 0x6 MUL ADD SWAP1 POP DUP1 PUSH1 0x3 ADD SLOAD PUSH1 0x0 LT PUSH2 0x89B JUMPI PUSH1 0x40 MLOAD PUSH3 0x461BCD PUSH1 0xE5 SHL DUP2 MSTORE PUSH1 0x20 PUSH1 0x4 DUP3 ADD MSTORE PUSH1 0x10 PUSH1 0x24 DUP3 ADD MSTORE PUSH16 0x13D593158C4E9B1A5C5D5A59185D1959 PUSH1 0x82 SHL PUSH1 0x44 DUP3 ADD MSTORE PUSH1 0x64 ADD PUSH2 0x54D JUMP JUMPDEST DUP1 SLOAD PUSH1 0x2 DUP3 ADD SLOAD PUSH1 0x40 MLOAD PUSH4 0x200EAB69 PUSH1 0xE1 SHL DUP2 MSTORE PUSH1 0xFF PUSH1 0x1 PUSH1 0xA0 SHL DUP5 DIV AND SWAP3 PUSH1 0x0 SWAP3 DUP4 SWAP3 DUP4 SWAP3 PUSH1 0x1 PUSH1 0x1 PUSH1 0xA0 SHL SUB AND SWAP2 PUSH4 0x401D56D2 SWAP2 PUSH2 0x8EA SWAP2 DUP9 SWAP2 PUSH1 0x4 ADD SWAP2 ISZERO ISZERO DUP3 MSTORE PUSH1 0x20 DUP3 ADD MSTORE PUSH1 0x40 ADD SWAP1 JUMP JUMPDEST PUSH1 0x60 PUSH1 0x40 MLOAD DUP1 DUP4 SUB DUP2 PUSH1 0x0 DUP8 DUP1 EXTCODESIZE ISZERO DUP1 ISZERO PUSH2 0x904 JUMPI PUSH1 0x0 DUP1 REVERT JUMPDEST POP GAS CALL ISZERO DUP1 ISZERO PUSH2 0x918 JUMPI RETURNDATASIZE PUSH1 0x0 DUP1 RETURNDATACOPY RETURNDATASIZE PUSH1 0x0 REVERT JUMPDEST POP POP POP POP PUSH1 0x40 MLOAD RETURNDATASIZE PUSH1 0x1F NOT PUSH1 0x1F DUP3 ADD AND DUP3 ADD DUP1 PUSH1 0x40 MSTORE POP DUP2 ADD SWAP1 PUSH2 0x93C SWAP2 SWAP1 PUSH2 0x31D5 JUMP JUMPDEST DUP8 SLOAD PUSH1 0x1 PUSH1 0x1 PUSH1 0xA0 SHL SUB AND PUSH1 0x0 SWAP1 DUP2 MSTORE PUSH1 0x6 PUSH1 0x20 SWAP1 DUP2 MSTORE PUSH1 0x40 SWAP2 DUP3 SWAP1 KECCAK256 DUP3 MLOAD PUSH1 0x60 DUP2 ADD DUP5 MSTORE DUP2 SLOAD DUP1 DUP3 MSTORE PUSH1 0x1 DUP4 ADD SLOAD SWAP4 DUP3 ADD SWAP4 SWAP1 SWAP4 MSTORE PUSH1 0x2 SWAP1 SWAP2 ADD SLOAD SWAP3 DUP2 ADD SWAP3 SWAP1 SWAP3 MSTORE SWAP4 SWAP7 POP SWAP2 SWAP5 POP SWAP3 POP SWAP1 PUSH2 0x999 SWAP1 DUP8 SWAP1 DUP7 SWAP1 DUP7 SWAP1 DUP7 SWAP1 PUSH2 0x1E96 JUMP JUMPDEST PUSH2 0x9E5 JUMPI PUSH1 0x40 MLOAD PUSH3 0x461BCD PUSH1 0xE5 SHL DUP2 MSTORE PUSH1 0x20 PUSH1 0x4 DUP3 ADD MSTORE PUSH1 0x13 PUSH1 0x24 DUP3 ADD MSTORE PUSH32 0x4F564C56313A216C6971756964617461626C6500000000000000000000000000 PUSH1 0x44 DUP3 ADD MSTORE PUSH1 0x64 ADD PUSH2 0x54D JUMP JUMPDEST PUSH1 0x0 PUSH2 0x9F3 DUP8 DUP7 DUP7 DUP7 PUSH2 0x1F03 JUMP JUMPDEST DUP8 SLOAD SWAP1 SWAP2 POP PUSH1 0x1 PUSH1 0x1 PUSH1 0xA0 SHL SUB AND PUSH4 0xE8FD2B77 DUP8 PUSH2 0xA12 DUP11 DUP10 DUP10 PUSH2 0x1F79 JUMP JUMPDEST DUP11 PUSH1 0x3 ADD SLOAD PUSH1 0x0 DUP7 DUP14 PUSH1 0x5 ADD SLOAD PUSH2 0xA29 SWAP2 SWAP1 PUSH2 0x3433 JUMP JUMPDEST PUSH1 0x40 MLOAD PUSH1 0x1 PUSH1 0x1 PUSH1 0xE0 SHL SUB NOT PUSH1 0xE0 DUP9 SWAP1 SHL AND DUP2 MSTORE SWAP5 ISZERO ISZERO PUSH1 0x4 DUP7 ADD MSTORE PUSH1 0x24 DUP6 ADD SWAP4 SWAP1 SWAP4 MSTORE PUSH1 0x44 DUP5 ADD SWAP2 SWAP1 SWAP2 MSTORE PUSH1 0x64 DUP4 ADD MSTORE PUSH1 0x84 DUP3 ADD MSTORE PUSH1 0xA4 ADD PUSH1 0x0 PUSH1 0x40 MLOAD DUP1 DUP4 SUB DUP2 PUSH1 0x0 DUP8 DUP1 EXTCODESIZE ISZERO DUP1 ISZERO PUSH2 0xA7C JUMPI PUSH1 0x0 DUP1 REVERT JUMPDEST POP GAS CALL ISZERO DUP1 ISZERO PUSH2 0xA90 JUMPI RETURNDATASIZE PUSH1 0x0 DUP1 RETURNDATACOPY RETURNDATASIZE PUSH1 0x0 REVERT JUMPDEST POP POP PUSH1 0x0 PUSH1 0x3 DUP11 ADD DUP2 SWAP1 SSTORE PUSH1 0x4 DUP11 ADD DUP2 SWAP1 SSTORE PUSH1 0x20 DUP6 ADD MLOAD SWAP1 SWAP3 POP PUSH2 0xAB6 SWAP2 POP DUP4 SWAP1 PUSH2 0x1FED JUMP JUMPDEST SWAP1 POP PUSH2 0xAC2 DUP2 DUP4 PUSH2 0x3433 JUMP JUMPDEST PUSH1 0x9 PUSH1 0x0 DUP3 DUP3 SLOAD PUSH2 0xAD3 SWAP2 SWAP1 PUSH2 0x33DA JUMP JUMPDEST SWAP1 SWAP2 SSTORE POP POP PUSH1 0x40 DUP1 MLOAD DUP12 DUP2 MSTORE PUSH1 0x20 DUP2 ADD DUP9 SWAP1 MSTORE SWAP1 DUP2 ADD DUP3 SWAP1 MSTORE PUSH1 0x1 PUSH1 0x1 PUSH1 0xA0 SHL SUB DUP11 AND PUSH1 0x60 DUP3 ADD MSTORE PUSH32 0xA7DEA6636C8DA6757BEDCE766781FD072194B0E21C1BC9E1278495B571B850B1 SWAP1 PUSH1 0x80 ADD PUSH1 0x40 MLOAD DUP1 SWAP2 SUB SWAP1 LOG1 PUSH32 0x0 PUSH1 0x1 PUSH1 0x1 PUSH1 0xA0 SHL SUB AND PUSH4 0xDDC88E96 DUP11 DUP4 DUP6 DUP13 PUSH1 0x5 ADD SLOAD PUSH2 0xB69 SWAP2 SWAP1 PUSH2 0x3433 JUMP JUMPDEST PUSH1 0x40 MLOAD PUSH1 0x1 PUSH1 0x1 PUSH1 0xE0 SHL SUB NOT PUSH1 0xE0 DUP7 SWAP1 SHL AND DUP2 MSTORE PUSH1 0x1 PUSH1 0x1 PUSH1 0xA0 SHL SUB SWAP1 SWAP4 AND PUSH1 0x4 DUP5 ADD MSTORE PUSH1 0x24 DUP4 ADD SWAP2 SWAP1 SWAP2 MSTORE PUSH1 0x44 DUP3 ADD MSTORE PUSH1 0x64 ADD PUSH1 0x20 PUSH1 0x40 MLOAD DUP1 DUP4 SUB DUP2 PUSH1 0x0 DUP8 DUP1 EXTCODESIZE ISZERO DUP1 ISZERO PUSH2 0xBB7 JUMPI PUSH1 0x0 DUP1 REVERT JUMPDEST POP GAS CALL ISZERO DUP1 ISZERO PUSH2 0xBCB JUMPI RETURNDATASIZE PUSH1 0x0 DUP1 RETURNDATACOPY RETURNDATASIZE PUSH1 0x0 REVERT JUMPDEST POP POP POP POP PUSH1 0x40 MLOAD RETURNDATASIZE PUSH1 0x1F NOT PUSH1 0x1F DUP3 ADD AND DUP3 ADD DUP1 PUSH1 0x40 MSTORE POP DUP2 ADD SWAP1 PUSH2 0xBEF SWAP2 SWAP1 PUSH2 0x30CC JUMP JUMPDEST POP POP POP POP POP POP POP POP POP POP POP JUMP JUMPDEST PUSH1 0x40 MLOAD PUSH4 0x24745215 PUSH1 0xE2 SHL DUP2 MSTORE PUSH32 0x1A6838EFA4183E08FE3607359D1259272AF9D4716F65E1A7B5921F78FD5A3C6A PUSH1 0x4 DUP3 ADD MSTORE CALLER PUSH1 0x24 DUP3 ADD MSTORE PUSH32 0x0 PUSH1 0x1 PUSH1 0x1 PUSH1 0xA0 SHL SUB AND SWAP1 PUSH4 0x91D14854 SWAP1 PUSH1 0x44 ADD PUSH1 0x20 PUSH1 0x40 MLOAD DUP1 DUP4 SUB DUP2 DUP7 DUP1 EXTCODESIZE ISZERO DUP1 ISZERO PUSH2 0xC81 JUMPI PUSH1 0x0 DUP1 REVERT JUMPDEST POP GAS STATICCALL ISZERO DUP1 ISZERO PUSH2 0xC95 JUMPI RETURNDATASIZE PUSH1 0x0 DUP1 RETURNDATACOPY RETURNDATASIZE PUSH1 0x0 REVERT JUMPDEST POP POP POP POP PUSH1 0x40 MLOAD RETURNDATASIZE PUSH1 0x1F NOT PUSH1 0x1F DUP3 ADD AND DUP3 ADD DUP1 PUSH1 0x40 MSTORE POP DUP2 ADD SWAP1 PUSH2 0xCB9 SWAP2 SWAP1 PUSH2 0x30CC JUMP JUMPDEST PUSH2 0xCF7 JUMPI PUSH1 0x40 MLOAD PUSH3 0x461BCD PUSH1 0xE5 SHL DUP2 MSTORE PUSH1 0x20 PUSH1 0x4 DUP3 ADD MSTORE PUSH1 0xF PUSH1 0x24 DUP3 ADD MSTORE PUSH15 0x27AB262B189D10B3B7BB32B93737B9 PUSH1 0x89 SHL PUSH1 0x44 DUP3 ADD MSTORE PUSH1 0x64 ADD PUSH2 0x54D JUMP JUMPDEST PUSH1 0x1 PUSH1 0x1 PUSH1 0xA0 SHL SUB SWAP1 SWAP4 AND PUSH1 0x0 SWAP1 DUP2 MSTORE PUSH1 0x6 PUSH1 0x20 MSTORE PUSH1 0x40 SWAP1 KECCAK256 SWAP2 DUP3 SSTORE PUSH1 0x1 DUP3 ADD SSTORE PUSH1 0x2 ADD SSTORE JUMP JUMPDEST PUSH1 0x40 MLOAD PUSH4 0xEEEC7D6F PUSH1 0xE0 SHL DUP2 MSTORE PUSH1 0x1 PUSH1 0x1 PUSH1 0xA0 SHL SUB DUP7 DUP2 AND PUSH1 0x4 DUP4 ADD MSTORE PUSH1 0x0 SWAP2 PUSH32 0x0 SWAP1 SWAP2 AND SWAP1 PUSH4 0xEEEC7D6F SWAP1 PUSH1 0x24 ADD PUSH1 0x20 PUSH1 0x40 MLOAD DUP1 DUP4 SUB DUP2 DUP7 DUP1 EXTCODESIZE ISZERO DUP1 ISZERO PUSH2 0xD84 JUMPI PUSH1 0x0 DUP1 REVERT JUMPDEST POP GAS STATICCALL ISZERO DUP1 ISZERO PUSH2 0xD98 JUMPI RETURNDATASIZE PUSH1 0x0 DUP1 RETURNDATACOPY RETURNDATASIZE PUSH1 0x0 REVERT JUMPDEST POP POP POP POP PUSH1 0x40 MLOAD RETURNDATASIZE PUSH1 0x1F NOT PUSH1 0x1F DUP3 ADD AND DUP3 ADD DUP1 PUSH1 0x40 MSTORE POP DUP2 ADD SWAP1 PUSH2 0xDBC SWAP2 SWAP1 PUSH2 0x30CC JUMP JUMPDEST PUSH2 0xDF8 JUMPI PUSH1 0x40 MLOAD PUSH3 0x461BCD PUSH1 0xE5 SHL DUP2 MSTORE PUSH1 0x20 PUSH1 0x4 DUP3 ADD MSTORE PUSH1 0xD PUSH1 0x24 DUP3 ADD MSTORE PUSH13 0x13D593158C4E885B585C9AD95D PUSH1 0x9A SHL PUSH1 0x44 DUP3 ADD MSTORE PUSH1 0x64 ADD PUSH2 0x54D JUMP JUMPDEST PUSH1 0x1 PUSH1 0x1 PUSH1 0xA0 SHL SUB DUP7 AND PUSH1 0x0 SWAP1 DUP2 MSTORE PUSH1 0x6 PUSH1 0x20 MSTORE PUSH1 0x40 SWAP1 KECCAK256 PUSH1 0x2 ADD SLOAD DUP5 GT ISZERO PUSH2 0xE53 JUMPI PUSH1 0x40 MLOAD PUSH3 0x461BCD PUSH1 0xE5 SHL DUP2 MSTORE PUSH1 0x20 PUSH1 0x4 DUP3 ADD MSTORE PUSH1 0xD PUSH1 0x24 DUP3 ADD MSTORE PUSH13 0x9EAC98AC6274D8CAEC7CDAC2F PUSH1 0x9B SHL PUSH1 0x44 DUP3 ADD MSTORE PUSH1 0x64 ADD PUSH2 0x54D JUMP JUMPDEST PUSH1 0x40 MLOAD PUSH4 0xF293839 PUSH1 0xE0 SHL DUP2 MSTORE DUP4 ISZERO ISZERO PUSH1 0x4 DUP3 ADD MSTORE PUSH1 0x24 DUP2 ADD DUP7 SWAP1 MSTORE PUSH1 0x44 DUP2 ADD DUP6 SWAP1 MSTORE PUSH1 0x0 SWAP1 DUP2 SWAP1 DUP2 SWAP1 DUP2 SWAP1 DUP2 SWAP1 DUP2 SWAP1 PUSH1 0x1 PUSH1 0x1 PUSH1 0xA0 SHL SUB DUP14 AND SWAP1 PUSH4 0xF293839 SWAP1 PUSH1 0x64 ADD PUSH1 0xC0 PUSH1 0x40 MLOAD DUP1 DUP4 SUB DUP2 PUSH1 0x0 DUP8 DUP1 EXTCODESIZE ISZERO DUP1 ISZERO PUSH2 0xEB1 JUMPI PUSH1 0x0 DUP1 REVERT JUMPDEST POP GAS CALL ISZERO DUP1 ISZERO PUSH2 0xEC5 JUMPI RETURNDATASIZE PUSH1 0x0 DUP1 RETURNDATACOPY RETURNDATASIZE PUSH1 0x0 REVERT JUMPDEST POP POP POP POP PUSH1 0x40 MLOAD RETURNDATASIZE PUSH1 0x1F NOT PUSH1 0x1F DUP3 ADD AND DUP3 ADD DUP1 PUSH1 0x40 MSTORE POP DUP2 ADD SWAP1 PUSH2 0xEE9 SWAP2 SWAP1 PUSH2 0x3203 JUMP JUMPDEST SWAP6 POP SWAP6 POP SWAP6 POP SWAP6 POP SWAP6 POP SWAP6 POP DUP8 DUP7 LT ISZERO PUSH2 0xF34 JUMPI PUSH1 0x40 MLOAD PUSH3 0x461BCD PUSH1 0xE5 SHL DUP2 MSTORE PUSH1 0x20 PUSH1 0x4 DUP3 ADD MSTORE PUSH1 0xC PUSH1 0x24 DUP3 ADD MSTORE PUSH12 0x27AB262B189D37B49E36B4B7 PUSH1 0xA1 SHL PUSH1 0x44 DUP3 ADD MSTORE PUSH1 0x64 ADD PUSH2 0x54D JUMP JUMPDEST PUSH1 0x0 PUSH2 0xF42 DUP14 DUP12 DUP14 DUP6 PUSH2 0x205B JUMP JUMPDEST SWAP1 POP PUSH1 0x0 PUSH1 0x7 DUP3 DUP2 SLOAD DUP2 LT PUSH2 0xF59 JUMPI PUSH2 0xF59 PUSH2 0x34E3 JUMP JUMPDEST SWAP1 PUSH1 0x0 MSTORE PUSH1 0x20 PUSH1 0x0 KECCAK256 SWAP1 PUSH1 0x6 MUL ADD SWAP1 POP DUP8 DUP2 PUSH1 0x3 ADD PUSH1 0x0 DUP3 DUP3 SLOAD PUSH2 0xF7D SWAP2 SWAP1 PUSH2 0x33DA JUMP JUMPDEST SWAP3 POP POP DUP2 SWAP1 SSTORE POP DUP7 DUP2 PUSH1 0x5 ADD PUSH1 0x0 DUP3 DUP3 SLOAD PUSH2 0xF98 SWAP2 SWAP1 PUSH2 0x33DA JUMP JUMPDEST SWAP3 POP POP DUP2 SWAP1 SSTORE POP DUP6 DUP2 PUSH1 0x4 ADD PUSH1 0x0 DUP3 DUP3 SLOAD PUSH2 0xFB3 SWAP2 SWAP1 PUSH2 0x33DA JUMP JUMPDEST SWAP3 POP POP DUP2 SWAP1 SSTORE POP DUP5 PUSH1 0x8 PUSH1 0x0 DUP3 DUP3 SLOAD PUSH2 0xFCC SWAP2 SWAP1 PUSH2 0x33DA JUMP JUMPDEST SWAP3 POP POP DUP2 SWAP1 SSTORE POP PUSH32 0x428B559DEB78AE264F175A82B90ECAC7F28ACC5C0BBCE329463BCF94AA5FFD53 DUP15 DUP4 DUP11 DUP10 PUSH1 0x40 MLOAD PUSH2 0x1029 SWAP5 SWAP4 SWAP3 SWAP2 SWAP1 PUSH1 0x1 PUSH1 0x1 PUSH1 0xA0 SHL SUB SWAP5 SWAP1 SWAP5 AND DUP5 MSTORE PUSH1 0x20 DUP5 ADD SWAP3 SWAP1 SWAP3 MSTORE PUSH1 0x40 DUP4 ADD MSTORE PUSH1 0x60 DUP3 ADD MSTORE PUSH1 0x80 ADD SWAP1 JUMP JUMPDEST PUSH1 0x40 MLOAD DUP1 SWAP2 SUB SWAP1 LOG1 PUSH1 0x1 PUSH1 0x1 PUSH1 0xA0 SHL SUB PUSH32 0x0 AND PUSH4 0xCDDCAB80 CALLER ADDRESS PUSH2 0x106C DUP10 DUP13 PUSH2 0x33DA JUMP JUMPDEST PUSH1 0x40 MLOAD PUSH1 0x1 PUSH1 0x1 PUSH1 0xE0 SHL SUB NOT PUSH1 0xE0 DUP7 SWAP1 SHL AND DUP2 MSTORE PUSH1 0x1 PUSH1 0x1 PUSH1 0xA0 SHL SUB SWAP4 DUP5 AND PUSH1 0x4 DUP3 ADD MSTORE SWAP3 SWAP1 SWAP2 AND PUSH1 0x24 DUP4 ADD MSTORE PUSH1 0x44 DUP3 ADD MSTORE PUSH1 0x64 DUP2 ADD DUP8 SWAP1 MSTORE PUSH1 0x84 ADD PUSH1 0x20 PUSH1 0x40 MLOAD DUP1 DUP4 SUB DUP2 PUSH1 0x0 DUP8 DUP1 EXTCODESIZE ISZERO DUP1 ISZERO PUSH2 0x10C2 JUMPI PUSH1 0x0 DUP1 REVERT JUMPDEST POP GAS CALL ISZERO DUP1 ISZERO PUSH2 0x10D6 JUMPI RETURNDATASIZE PUSH1 0x0 DUP1 RETURNDATACOPY RETURNDATASIZE PUSH1 0x0 REVERT JUMPDEST POP POP POP POP PUSH1 0x40 MLOAD RETURNDATASIZE PUSH1 0x1F NOT PUSH1 0x1F DUP3 ADD AND DUP3 ADD DUP1 PUSH1 0x40 MSTORE POP DUP2 ADD SWAP1 PUSH2 0x10FA SWAP2 SWAP1 PUSH2 0x30CC JUMP JUMPDEST POP PUSH2 0x1116 CALLER DUP4 DUP11 PUSH1 0x40 MLOAD DUP1 PUSH1 0x20 ADD PUSH1 0x40 MSTORE DUP1 PUSH1 0x0 DUP2 MSTORE POP PUSH2 0x2280 JUMP JUMPDEST POP SWAP13 SWAP12 POP POP POP POP POP POP POP POP POP POP POP POP JUMP JUMPDEST PUSH1 0x7 DUP2 DUP2 SLOAD DUP2 LT PUSH2 0x1137 JUMPI PUSH1 0x0 DUP1 REVERT JUMPDEST PUSH1 0x0 SWAP2 DUP3 MSTORE PUSH1 0x20 SWAP1 SWAP2 KECCAK256 PUSH1 0x6 SWAP1 SWAP2 MUL ADD DUP1 SLOAD PUSH1 0x1 DUP3 ADD SLOAD PUSH1 0x2 DUP4 ADD SLOAD PUSH1 0x3 DUP5 ADD SLOAD PUSH1 0x4 DUP6 ADD SLOAD PUSH1 0x5 SWAP1 SWAP6 ADD SLOAD PUSH1 0x1 PUSH1 0x1 PUSH1 0xA0 SHL SUB DUP6 AND SWAP7 POP PUSH1 0x1 PUSH1 0xA0 SHL SWAP1 SWAP5 DIV PUSH1 0xFF AND SWAP5 SWAP3 SWAP4 SWAP2 SWAP3 SWAP1 SWAP2 DUP8 JUMP JUMPDEST CALLER PUSH1 0x1 PUSH1 0x1 PUSH1 0xA0 SHL SUB DUP4 AND EQ ISZERO PUSH2 0x11EF JUMPI PUSH1 0x40 MLOAD PUSH3 0x461BCD PUSH1 0xE5 SHL DUP2 MSTORE PUSH1 0x20 PUSH1 0x4 DUP3 ADD MSTORE PUSH1 0x29 PUSH1 0x24 DUP3 ADD MSTORE PUSH32 0x455243313135353A2073657474696E6720617070726F76616C20737461747573 PUSH1 0x44 DUP3 ADD MSTORE PUSH9 0x103337B91039B2B633 PUSH1 0xB9 SHL PUSH1 0x64 DUP3 ADD MSTORE PUSH1 0x84 ADD PUSH2 0x54D JUMP JUMPDEST CALLER PUSH1 0x0 DUP2 DUP2 MSTORE PUSH1 0x1 PUSH1 0x20 SWAP1 DUP2 MSTORE PUSH1 0x40 DUP1 DUP4 KECCAK256 PUSH1 0x1 PUSH1 0x1 PUSH1 0xA0 SHL SUB DUP8 AND DUP1 DUP6 MSTORE SWAP1 DUP4 MSTORE SWAP3 DUP2 SWAP1 KECCAK256 DUP1 SLOAD PUSH1 0xFF NOT AND DUP7 ISZERO ISZERO SWAP1 DUP2 OR SWAP1 SWAP2 SSTORE SWAP1 MLOAD SWAP1 DUP2 MSTORE SWAP2 SWAP3 SWAP2 PUSH32 0x17307EAB39AB6107E8899845AD3D59BD9653F200F220920489CA2B5937696C31 SWAP2 ADD PUSH1 0x40 MLOAD DUP1 SWAP2 SUB SWAP1 LOG3 POP POP JUMP JUMPDEST DUP1 PUSH1 0x0 LT DUP1 ISZERO PUSH2 0x1274 JUMPI POP PUSH2 0x1270 CALLER DUP4 PUSH2 0x4E5 JUMP JUMPDEST DUP2 GT ISZERO JUMPDEST PUSH2 0x12B0 JUMPI PUSH1 0x40 MLOAD PUSH3 0x461BCD PUSH1 0xE5 SHL DUP2 MSTORE PUSH1 0x20 PUSH1 0x4 DUP3 ADD MSTORE PUSH1 0xD PUSH1 0x24 DUP3 ADD MSTORE PUSH13 0x4F564C56313A21736861726573 PUSH1 0x98 SHL PUSH1 0x44 DUP3 ADD MSTORE PUSH1 0x64 ADD PUSH2 0x54D JUMP JUMPDEST PUSH1 0x0 PUSH1 0x7 DUP4 DUP2 SLOAD DUP2 LT PUSH2 0x12C5 JUMPI PUSH2 0x12C5 PUSH2 0x34E3 JUMP JUMPDEST SWAP1 PUSH1 0x0 MSTORE PUSH1 0x20 PUSH1 0x0 KECCAK256 SWAP1 PUSH1 0x6 MUL ADD SWAP1 POP DUP1 PUSH1 0x3 ADD SLOAD PUSH1 0x0 LT PUSH2 0x131C JUMPI PUSH1 0x40 MLOAD PUSH3 0x461BCD PUSH1 0xE5 SHL DUP2 MSTORE PUSH1 0x20 PUSH1 0x4 DUP3 ADD MSTORE PUSH1 0x10 PUSH1 0x24 DUP3 ADD MSTORE PUSH16 0x13D593158C4E9B1A5C5D5A59185D1959 PUSH1 0x82 SHL PUSH1 0x44 DUP3 ADD MSTORE PUSH1 0x64 ADD PUSH2 0x54D JUMP JUMPDEST DUP1 SLOAD PUSH1 0x2 DUP3 ADD SLOAD PUSH1 0x40 MLOAD PUSH4 0x200EAB69 PUSH1 0xE1 SHL DUP2 MSTORE PUSH1 0x1 PUSH1 0xA0 SHL DUP4 DIV PUSH1 0xFF AND ISZERO ISZERO PUSH1 0x4 DUP3 ADD MSTORE PUSH1 0x24 DUP2 ADD SWAP2 SWAP1 SWAP2 MSTORE PUSH1 0x0 SWAP2 DUP3 SWAP2 DUP3 SWAP2 PUSH1 0x1 PUSH1 0x1 PUSH1 0xA0 SHL SUB AND SWAP1 PUSH4 0x401D56D2 SWAP1 PUSH1 0x44 ADD PUSH1 0x60 PUSH1 0x40 MLOAD DUP1 DUP4 SUB DUP2 PUSH1 0x0 DUP8 DUP1 EXTCODESIZE ISZERO DUP1 ISZERO PUSH2 0x137D JUMPI PUSH1 0x0 DUP1 REVERT JUMPDEST POP GAS CALL ISZERO DUP1 ISZERO PUSH2 0x1391 JUMPI RETURNDATASIZE PUSH1 0x0 DUP1 RETURNDATACOPY RETURNDATASIZE PUSH1 0x0 REVERT JUMPDEST POP POP POP POP PUSH1 0x40 MLOAD RETURNDATASIZE PUSH1 0x1F NOT PUSH1 0x1F DUP3 ADD AND DUP3 ADD DUP1 PUSH1 0x40 MSTORE POP DUP2 ADD SWAP1 PUSH2 0x13B5 SWAP2 SWAP1 PUSH2 0x31D5 JUMP JUMPDEST SWAP3 POP SWAP3 POP SWAP3 POP PUSH1 0x0 PUSH2 0x13D3 DUP8 PUSH1 0x0 SWAP1 DUP2 MSTORE PUSH1 0x3 PUSH1 0x20 MSTORE PUSH1 0x40 SWAP1 KECCAK256 SLOAD SWAP1 JUMP JUMPDEST SWAP1 POP DUP6 PUSH1 0x0 DUP3 PUSH2 0x13E5 DUP9 DUP9 DUP9 DUP9 PUSH2 0x22B5 JUMP JUMPDEST PUSH2 0x13EF SWAP1 DUP11 PUSH2 0x3414 JUMP JUMPDEST PUSH2 0x13F9 SWAP2 SWAP1 PUSH2 0x33F2 JUMP JUMPDEST SWAP1 POP PUSH1 0x0 DUP4 DUP9 PUSH1 0x4 ADD SLOAD DUP11 PUSH2 0x140E SWAP2 SWAP1 PUSH2 0x3414 JUMP JUMPDEST PUSH2 0x1418 SWAP2 SWAP1 PUSH2 0x33F2 JUMP JUMPDEST SWAP1 POP PUSH1 0x0 DUP5 DUP10 PUSH1 0x5 ADD SLOAD DUP12 PUSH2 0x142D SWAP2 SWAP1 PUSH2 0x3414 JUMP JUMPDEST PUSH2 0x1437 SWAP2 SWAP1 PUSH2 0x33F2 JUMP JUMPDEST SWAP1 POP PUSH1 0x0 DUP6 PUSH2 0x1447 DUP12 DUP12 DUP12 PUSH2 0x1F79 JUMP JUMPDEST PUSH2 0x1451 SWAP1 DUP14 PUSH2 0x3414 JUMP JUMPDEST PUSH2 0x145B SWAP2 SWAP1 PUSH2 0x33F2 JUMP JUMPDEST DUP11 SLOAD PUSH1 0x40 DUP1 MLOAD PUSH1 0x1 PUSH1 0x1 PUSH1 0xA0 SHL SUB SWAP1 SWAP3 AND DUP3 MSTORE PUSH1 0x20 DUP3 ADD DUP16 SWAP1 MSTORE DUP2 ADD DUP3 SWAP1 MSTORE PUSH1 0x60 DUP2 ADD DUP6 SWAP1 MSTORE SWAP1 SWAP2 POP PUSH32 0xED2784480BDAB74064F940B0FBEAD975D5CE4F0936822552F3B893E1646B2237 SWAP1 PUSH1 0x80 ADD PUSH1 0x40 MLOAD DUP1 SWAP2 SUB SWAP1 LOG1 PUSH1 0x0 PUSH2 0x154E PUSH32 0x0 PUSH1 0x1 PUSH1 0x1 PUSH1 0xA0 SHL SUB AND PUSH4 0xDDCA3F43 PUSH1 0x40 MLOAD DUP2 PUSH4 0xFFFFFFFF AND PUSH1 0xE0 SHL DUP2 MSTORE PUSH1 0x4 ADD PUSH1 0x20 PUSH1 0x40 MLOAD DUP1 DUP4 SUB DUP2 DUP7 DUP1 EXTCODESIZE ISZERO DUP1 ISZERO PUSH2 0x150F JUMPI PUSH1 0x0 DUP1 REVERT JUMPDEST POP GAS STATICCALL ISZERO DUP1 ISZERO PUSH2 0x1523 JUMPI RETURNDATASIZE PUSH1 0x0 DUP1 RETURNDATACOPY RETURNDATASIZE PUSH1 0x0 REVERT JUMPDEST POP POP POP POP PUSH1 0x40 MLOAD RETURNDATASIZE PUSH1 0x1F NOT PUSH1 0x1F DUP3 ADD AND DUP3 ADD DUP1 PUSH1 0x40 MSTORE POP DUP2 ADD SWAP1 PUSH2 0x1547 SWAP2 SWAP1 PUSH2 0x313C JUMP JUMPDEST DUP7 SWAP1 PUSH2 0x1FED JUMP JUMPDEST SWAP1 POP PUSH1 0x0 PUSH2 0x155C DUP3 DUP8 PUSH2 0x3433 JUMP JUMPDEST SWAP1 POP DUP5 DUP2 GT ISZERO PUSH2 0x1577 JUMPI PUSH2 0x1570 DUP6 DUP3 PUSH2 0x3433 JUMP JUMPDEST SWAP1 POP PUSH2 0x157B JUMP JUMPDEST POP PUSH1 0x0 JUMPDEST DUP2 PUSH1 0x8 PUSH1 0x0 DUP3 DUP3 SLOAD PUSH2 0x158D SWAP2 SWAP1 PUSH2 0x33DA JUMP JUMPDEST SWAP3 POP POP DUP2 SWAP1 SSTORE POP DUP5 DUP13 PUSH1 0x4 ADD PUSH1 0x0 DUP3 DUP3 SLOAD PUSH2 0x15A8 SWAP2 SWAP1 PUSH2 0x3433 JUMP JUMPDEST SWAP3 POP POP DUP2 SWAP1 SSTORE POP DUP4 DUP13 PUSH1 0x5 ADD PUSH1 0x0 DUP3 DUP3 SLOAD PUSH2 0x15C3 SWAP2 SWAP1 PUSH2 0x3433 JUMP JUMPDEST SWAP3 POP POP DUP2 SWAP1 SSTORE POP DUP7 DUP13 PUSH1 0x3 ADD PUSH1 0x0 DUP3 DUP3 SLOAD PUSH2 0x15DE SWAP2 SWAP1 PUSH2 0x3433 JUMP JUMPDEST SWAP1 SWAP2 SSTORE POP POP DUP1 DUP5 LT ISZERO PUSH2 0x16B2 JUMPI PUSH1 0x1 PUSH1 0x1 PUSH1 0xA0 SHL SUB PUSH32 0x0 AND PUSH4 0xF8541991 CALLER DUP7 PUSH2 0x1626 DUP2 DUP7 PUSH2 0x3433 JUMP JUMPDEST PUSH1 0x40 MLOAD PUSH1 0x1 PUSH1 0x1 PUSH1 0xE0 SHL SUB NOT PUSH1 0xE0 DUP7 SWAP1 SHL AND DUP2 MSTORE PUSH1 0x1 PUSH1 0x1 PUSH1 0xA0 SHL SUB SWAP1 SWAP4 AND PUSH1 0x4 DUP5 ADD MSTORE PUSH1 0x24 DUP4 ADD SWAP2 SWAP1 SWAP2 MSTORE PUSH1 0x44 DUP3 ADD MSTORE PUSH1 0x64 ADD PUSH1 0x20 PUSH1 0x40 MLOAD DUP1 DUP4 SUB DUP2 PUSH1 0x0 DUP8 DUP1 EXTCODESIZE ISZERO DUP1 ISZERO PUSH2 0x1674 JUMPI PUSH1 0x0 DUP1 REVERT JUMPDEST POP GAS CALL ISZERO DUP1 ISZERO PUSH2 0x1688 JUMPI RETURNDATASIZE PUSH1 0x0 DUP1 RETURNDATACOPY RETURNDATASIZE PUSH1 0x0 REVERT JUMPDEST POP POP POP POP PUSH1 0x40 MLOAD RETURNDATASIZE PUSH1 0x1F NOT PUSH1 0x1F DUP3 ADD AND DUP3 ADD DUP1 PUSH1 0x40 MSTORE POP DUP2 ADD SWAP1 PUSH2 0x16AC SWAP2 SWAP1 PUSH2 0x30CC JUMP JUMPDEST POP PUSH2 0x1775 JUMP JUMPDEST PUSH1 0x1 PUSH1 0x1 PUSH1 0xA0 SHL SUB PUSH32 0x0 AND PUSH4 0xDDC88E96 CALLER DUP4 PUSH2 0x16ED DUP2 DUP10 PUSH2 0x3433 JUMP JUMPDEST PUSH1 0x40 MLOAD PUSH1 0x1 PUSH1 0x1 PUSH1 0xE0 SHL SUB NOT PUSH1 0xE0 DUP7 SWAP1 SHL AND DUP2 MSTORE PUSH1 0x1 PUSH1 0x1 PUSH1 0xA0 SHL SUB SWAP1 SWAP4 AND PUSH1 0x4 DUP5 ADD MSTORE PUSH1 0x24 DUP4 ADD SWAP2 SWAP1 SWAP2 MSTORE PUSH1 0x44 DUP3 ADD MSTORE PUSH1 0x64 ADD PUSH1 0x20 PUSH1 0x40 MLOAD DUP1 DUP4 SUB DUP2 PUSH1 0x0 DUP8 DUP1 EXTCODESIZE ISZERO DUP1 ISZERO PUSH2 0x173B JUMPI PUSH1 0x0 DUP1 REVERT JUMPDEST POP GAS CALL ISZERO DUP1 ISZERO PUSH2 0x174F JUMPI RETURNDATASIZE PUSH1 0x0 DUP1 RETURNDATACOPY RETURNDATASIZE PUSH1 0x0 REVERT JUMPDEST POP POP POP POP PUSH1 0x40 MLOAD RETURNDATASIZE PUSH1 0x1F NOT PUSH1 0x1F DUP3 ADD AND DUP3 ADD DUP1 PUSH1 0x40 MSTORE POP DUP2 ADD SWAP1 PUSH2 0x1773 SWAP2 SWAP1 PUSH2 0x30CC JUMP JUMPDEST POP JUMPDEST DUP12 SLOAD PUSH1 0x1 PUSH1 0x1 PUSH1 0xA0 SHL SUB DUP2 AND SWAP1 PUSH4 0xE8FD2B77 SWAP1 PUSH1 0x1 PUSH1 0xA0 SHL SWAP1 DIV PUSH1 0xFF AND DUP6 DUP11 DUP6 DUP10 LT PUSH2 0x17A2 JUMPI PUSH1 0x0 PUSH2 0x17AC JUMP JUMPDEST PUSH2 0x17AC DUP10 DUP8 PUSH2 0x3433 JUMP JUMPDEST DUP7 DUP11 LT PUSH2 0x17C2 JUMPI PUSH2 0x17BD DUP8 DUP12 PUSH2 0x3433 JUMP JUMPDEST PUSH2 0x17C5 JUMP JUMPDEST PUSH1 0x0 JUMPDEST PUSH1 0x40 MLOAD PUSH1 0x1 PUSH1 0x1 PUSH1 0xE0 SHL SUB NOT PUSH1 0xE0 DUP9 SWAP1 SHL AND DUP2 MSTORE SWAP5 ISZERO ISZERO PUSH1 0x4 DUP7 ADD MSTORE PUSH1 0x24 DUP6 ADD SWAP4 SWAP1 SWAP4 MSTORE PUSH1 0x44 DUP5 ADD SWAP2 SWAP1 SWAP2 MSTORE PUSH1 0x64 DUP4 ADD MSTORE PUSH1 0x84 DUP3 ADD MSTORE PUSH1 0xA4 ADD PUSH1 0x0 PUSH1 0x40 MLOAD DUP1 DUP4 SUB DUP2 PUSH1 0x0 DUP8 DUP1 EXTCODESIZE ISZERO DUP1 ISZERO PUSH2 0x1818 JUMPI PUSH1 0x0 DUP1 REVERT JUMPDEST POP GAS CALL ISZERO DUP1 ISZERO PUSH2 0x182C JUMPI RETURNDATASIZE PUSH1 0x0 DUP1 RETURNDATACOPY RETURNDATASIZE PUSH1 0x0 REVERT JUMPDEST POP POP POP POP POP POP POP POP POP POP POP POP POP POP POP PUSH2 0x1846 CALLER DUP5 DUP5 PUSH2 0x2321 JUMP JUMPDEST POP POP POP JUMP JUMPDEST PUSH1 0x0 DUP1 PUSH1 0x0 PUSH32 0x0 PUSH1 0x1 PUSH1 0x1 PUSH1 0xA0 SHL SUB AND PUSH4 0x84EB53A8 PUSH1 0x40 MLOAD DUP2 PUSH4 0xFFFFFFFF AND PUSH1 0xE0 SHL DUP2 MSTORE PUSH1 0x4 ADD PUSH1 0x60 PUSH1 0x40 MLOAD DUP1 DUP4 SUB DUP2 DUP7 DUP1 EXTCODESIZE ISZERO DUP1 ISZERO PUSH2 0x18A9 JUMPI PUSH1 0x0 DUP1 REVERT JUMPDEST POP GAS STATICCALL ISZERO DUP1 ISZERO PUSH2 0x18BD JUMPI RETURNDATASIZE PUSH1 0x0 DUP1 RETURNDATACOPY RETURNDATASIZE PUSH1 0x0 REVERT JUMPDEST POP POP POP POP PUSH1 0x40 MLOAD RETURNDATASIZE PUSH1 0x1F NOT PUSH1 0x1F DUP3 ADD AND DUP3 ADD DUP1 PUSH1 0x40 MSTORE POP DUP2 ADD SWAP1 PUSH2 0x18E1 SWAP2 SWAP1 PUSH2 0x319C JUMP JUMPDEST PUSH1 0x8 SLOAD SWAP3 SWAP6 POP SWAP1 SWAP4 POP SWAP2 POP PUSH1 0x0 PUSH2 0x18F8 DUP3 DUP6 PUSH2 0x1FED JUMP JUMPDEST SWAP1 POP PUSH2 0x1904 DUP2 DUP4 PUSH2 0x3433 JUMP JUMPDEST PUSH1 0x9 SLOAD SWAP1 SWAP3 POP PUSH1 0x0 PUSH2 0x1916 DUP3 DUP9 PUSH2 0x1FED JUMP JUMPDEST SWAP1 POP PUSH2 0x1922 DUP2 DUP4 PUSH2 0x3433 JUMP JUMPDEST PUSH1 0x0 PUSH1 0x8 DUP2 SWAP1 SSTORE PUSH1 0x9 SSTORE PUSH1 0x40 DUP1 MLOAD DUP7 DUP2 MSTORE PUSH1 0x20 DUP2 ADD DUP7 SWAP1 MSTORE SWAP1 DUP2 ADD DUP3 SWAP1 MSTORE PUSH1 0x60 DUP2 ADD DUP4 SWAP1 MSTORE SWAP1 SWAP3 POP PUSH32 0xCE49B138F2621300A7043A61F472CCFD643162BDF3EFB11354E22D5273B77A71 SWAP1 PUSH1 0x80 ADD PUSH1 0x40 MLOAD DUP1 SWAP2 SUB SWAP1 LOG1 PUSH1 0x1 PUSH1 0x1 PUSH1 0xA0 SHL SUB PUSH32 0x0 AND PUSH4 0x9DC29FAC ADDRESS PUSH2 0x19B1 DUP5 DUP8 PUSH2 0x33DA JUMP JUMPDEST PUSH1 0x40 MLOAD PUSH1 0x1 PUSH1 0x1 PUSH1 0xE0 SHL SUB NOT PUSH1 0xE0 DUP6 SWAP1 SHL AND DUP2 MSTORE PUSH1 0x1 PUSH1 0x1 PUSH1 0xA0 SHL SUB SWAP1 SWAP3 AND PUSH1 0x4 DUP4 ADD MSTORE PUSH1 0x24 DUP3 ADD MSTORE PUSH1 0x44 ADD PUSH1 0x0 PUSH1 0x40 MLOAD DUP1 DUP4 SUB DUP2 PUSH1 0x0 DUP8 DUP1 EXTCODESIZE ISZERO DUP1 ISZERO PUSH2 0x19F7 JUMPI PUSH1 0x0 DUP1 REVERT JUMPDEST POP GAS CALL ISZERO DUP1 ISZERO PUSH2 0x1A0B JUMPI RETURNDATASIZE PUSH1 0x0 DUP1 RETURNDATACOPY RETURNDATASIZE PUSH1 0x0 REVERT JUMPDEST POP POP POP POP PUSH32 0x0 PUSH1 0x1 PUSH1 0x1 PUSH1 0xA0 SHL SUB AND PUSH4 0xA9059CBB DUP7 DUP5 DUP8 PUSH2 0x1A4B SWAP2 SWAP1 PUSH2 0x33DA JUMP JUMPDEST PUSH1 0x40 MLOAD PUSH1 0x1 PUSH1 0x1 PUSH1 0xE0 SHL SUB NOT PUSH1 0xE0 DUP6 SWAP1 SHL AND DUP2 MSTORE PUSH1 0x1 PUSH1 0x1 PUSH1 0xA0 SHL SUB SWAP1 SWAP3 AND PUSH1 0x4 DUP4 ADD MSTORE PUSH1 0x24 DUP3 ADD MSTORE PUSH1 0x44 ADD PUSH1 0x20 PUSH1 0x40 MLOAD DUP1 DUP4 SUB DUP2 PUSH1 0x0 DUP8 DUP1 EXTCODESIZE ISZERO DUP1 ISZERO PUSH2 0x1A91 JUMPI PUSH1 0x0 DUP1 REVERT JUMPDEST POP GAS CALL ISZERO DUP1 ISZERO PUSH2 0x1AA5 JUMPI RETURNDATASIZE PUSH1 0x0 DUP1 RETURNDATACOPY RETURNDATASIZE PUSH1 0x0 REVERT JUMPDEST POP POP POP POP PUSH1 0x40 MLOAD RETURNDATASIZE PUSH1 0x1F NOT PUSH1 0x1F DUP3 ADD AND DUP3 ADD DUP1 PUSH1 0x40 MSTORE POP DUP2 ADD SWAP1 PUSH2 0x1AC9 SWAP2 SWAP1 PUSH2 0x30CC JUMP JUMPDEST POP POP POP POP POP POP POP POP JUMP JUMPDEST PUSH1 0x0 DUP1 PUSH1 0x7 DUP4 DUP2 SLOAD DUP2 LT PUSH2 0x1AE9 JUMPI PUSH2 0x1AE9 PUSH2 0x34E3 JUMP JUMPDEST PUSH1 0x0 SWAP2 DUP3 MSTORE PUSH1 0x20 DUP3 KECCAK256 PUSH1 0x6 SWAP2 SWAP1 SWAP2 MUL ADD DUP1 SLOAD PUSH1 0x2 DUP3 ADD SLOAD PUSH1 0x40 MLOAD PUSH4 0x6261A6B9 PUSH1 0xE0 SHL DUP2 MSTORE PUSH1 0x1 PUSH1 0xA0 SHL DUP4 DIV PUSH1 0xFF AND ISZERO ISZERO PUSH1 0x4 DUP3 ADD MSTORE PUSH1 0x24 DUP2 ADD SWAP2 SWAP1 SWAP2 MSTORE SWAP2 SWAP4 POP PUSH1 0x1 PUSH1 0x1 PUSH1 0xA0 SHL SUB AND SWAP2 SWAP1 DUP2 SWAP1 DUP2 SWAP1 DUP5 SWAP1 PUSH4 0x6261A6B9 SWAP1 PUSH1 0x44 ADD PUSH1 0x60 PUSH1 0x40 MLOAD DUP1 DUP4 SUB DUP2 DUP7 DUP1 EXTCODESIZE ISZERO DUP1 ISZERO PUSH2 0x1B5B JUMPI PUSH1 0x0 DUP1 REVERT JUMPDEST POP GAS STATICCALL ISZERO DUP1 ISZERO PUSH2 0x1B6F JUMPI RETURNDATASIZE PUSH1 0x0 DUP1 RETURNDATACOPY RETURNDATASIZE PUSH1 0x0 REVERT JUMPDEST POP POP POP POP PUSH1 0x40 MLOAD RETURNDATASIZE PUSH1 0x1F NOT PUSH1 0x1F DUP3 ADD AND DUP3 ADD DUP1 PUSH1 0x40 MSTORE POP DUP2 ADD SWAP1 PUSH2 0x1B93 SWAP2 SWAP1 PUSH2 0x31D5 JUMP JUMPDEST SWAP2 SWAP5 POP SWAP3 POP SWAP1 POP PUSH2 0x1BA6 DUP6 DUP5 DUP5 DUP5 PUSH2 0x1F03 JUMP JUMPDEST SWAP8 SWAP7 POP POP POP POP POP POP POP JUMP JUMPDEST PUSH1 0x1 PUSH1 0x1 PUSH1 0xA0 SHL SUB DUP6 AND CALLER EQ DUP1 PUSH2 0x1BCD JUMPI POP PUSH2 0x1BCD DUP6 CALLER PUSH2 0x478 JUMP JUMPDEST PUSH2 0x1C2B JUMPI PUSH1 0x40 MLOAD PUSH3 0x461BCD PUSH1 0xE5 SHL DUP2 MSTORE PUSH1 0x20 PUSH1 0x4 DUP3 ADD MSTORE PUSH1 0x29 PUSH1 0x24 DUP3 ADD MSTORE PUSH32 0x455243313135353A2063616C6C6572206973206E6F74206F776E6572206E6F72 PUSH1 0x44 DUP3 ADD MSTORE PUSH9 0x8185C1C1C9BDD9959 PUSH1 0xBA SHL PUSH1 0x64 DUP3 ADD MSTORE PUSH1 0x84 ADD PUSH2 0x54D JUMP JUMPDEST PUSH2 0x6FE DUP6 DUP6 DUP6 DUP6 DUP6 PUSH2 0x2354 JUMP JUMPDEST DUP2 MLOAD DUP4 MLOAD EQ PUSH2 0x1C9A JUMPI PUSH1 0x40 MLOAD PUSH3 0x461BCD PUSH1 0xE5 SHL DUP2 MSTORE PUSH1 0x20 PUSH1 0x4 DUP3 ADD MSTORE PUSH1 0x28 PUSH1 0x24 DUP3 ADD MSTORE PUSH32 0x455243313135353A2069647320616E6420616D6F756E7473206C656E67746820 PUSH1 0x44 DUP3 ADD MSTORE PUSH8 0xDAD2E6DAC2E8C6D PUSH1 0xC3 SHL PUSH1 0x64 DUP3 ADD MSTORE PUSH1 0x84 ADD PUSH2 0x54D JUMP JUMPDEST PUSH1 0x1 PUSH1 0x1 PUSH1 0xA0 SHL SUB DUP5 AND PUSH2 0x1CFE JUMPI PUSH1 0x40 MLOAD PUSH3 0x461BCD PUSH1 0xE5 SHL DUP2 MSTORE PUSH1 0x20 PUSH1 0x4 DUP3 ADD MSTORE PUSH1 0x25 PUSH1 0x24 DUP3 ADD MSTORE PUSH32 0x455243313135353A207472616E7366657220746F20746865207A65726F206164 PUSH1 0x44 DUP3 ADD MSTORE PUSH5 0x6472657373 PUSH1 0xD8 SHL PUSH1 0x64 DUP3 ADD MSTORE PUSH1 0x84 ADD PUSH2 0x54D JUMP JUMPDEST CALLER PUSH1 0x0 JUMPDEST DUP5 MLOAD DUP2 LT ISZERO PUSH2 0x1E28 JUMPI PUSH1 0x0 DUP6 DUP3 DUP2 MLOAD DUP2 LT PUSH2 0x1D1F JUMPI PUSH2 0x1D1F PUSH2 0x34E3 JUMP JUMPDEST PUSH1 0x20 MUL PUSH1 0x20 ADD ADD MLOAD SWAP1 POP PUSH1 0x0 DUP6 DUP4 DUP2 MLOAD DUP2 LT PUSH2 0x1D3D JUMPI PUSH2 0x1D3D PUSH2 0x34E3 JUMP JUMPDEST PUSH1 0x20 SWAP1 DUP2 MUL SWAP2 SWAP1 SWAP2 ADD DUP2 ADD MLOAD PUSH1 0x0 DUP5 DUP2 MSTORE DUP1 DUP4 MSTORE PUSH1 0x40 DUP1 DUP3 KECCAK256 PUSH1 0x1 PUSH1 0x1 PUSH1 0xA0 SHL SUB DUP15 AND DUP4 MSTORE SWAP1 SWAP4 MSTORE SWAP2 SWAP1 SWAP2 KECCAK256 SLOAD SWAP1 SWAP2 POP DUP2 DUP2 LT ISZERO PUSH2 0x1DD0 JUMPI PUSH1 0x40 MLOAD PUSH3 0x461BCD PUSH1 0xE5 SHL DUP2 MSTORE PUSH1 0x20 PUSH1 0x4 DUP3 ADD MSTORE PUSH1 0x2A PUSH1 0x24 DUP3 ADD MSTORE PUSH32 0x455243313135353A20696E73756666696369656E742062616C616E636520666F PUSH1 0x44 DUP3 ADD MSTORE PUSH10 0x39103A3930B739B332B9 PUSH1 0xB1 SHL PUSH1 0x64 DUP3 ADD MSTORE PUSH1 0x84 ADD PUSH2 0x54D JUMP JUMPDEST PUSH1 0x0 DUP4 DUP2 MSTORE PUSH1 0x20 DUP2 DUP2 MSTORE PUSH1 0x40 DUP1 DUP4 KECCAK256 PUSH1 0x1 PUSH1 0x1 PUSH1 0xA0 SHL SUB DUP15 DUP2 AND DUP6 MSTORE SWAP3 MSTORE DUP1 DUP4 KECCAK256 DUP6 DUP6 SUB SWAP1 SSTORE SWAP1 DUP12 AND DUP3 MSTORE DUP2 KECCAK256 DUP1 SLOAD DUP5 SWAP3 SWAP1 PUSH2 0x1E0D SWAP1 DUP5 SWAP1 PUSH2 0x33DA JUMP JUMPDEST SWAP3 POP POP DUP2 SWAP1 SSTORE POP POP POP POP DUP1 PUSH2 0x1E21 SWAP1 PUSH2 0x34B2 JUMP JUMPDEST SWAP1 POP PUSH2 0x1D02 JUMP JUMPDEST POP DUP5 PUSH1 0x1 PUSH1 0x1 PUSH1 0xA0 SHL SUB AND DUP7 PUSH1 0x1 PUSH1 0x1 PUSH1 0xA0 SHL SUB AND DUP3 PUSH1 0x1 PUSH1 0x1 PUSH1 0xA0 SHL SUB AND PUSH32 0x4A39DC06D4C0DBC64B70AF90FD698A233A518AA5D07E595D983B8C0526C8F7FB DUP8 DUP8 PUSH1 0x40 MLOAD PUSH2 0x1E78 SWAP3 SWAP2 SWAP1 PUSH2 0x337E JUMP JUMPDEST PUSH1 0x40 MLOAD DUP1 SWAP2 SUB SWAP1 LOG4 PUSH2 0x1E8E DUP2 DUP8 DUP8 DUP8 DUP8 DUP8 PUSH2 0x24FB JUMP JUMPDEST POP POP POP POP POP POP JUMP JUMPDEST PUSH1 0x40 DUP1 MLOAD PUSH1 0xE0 DUP2 ADD DUP3 MSTORE DUP7 SLOAD PUSH1 0x1 PUSH1 0x1 PUSH1 0xA0 SHL SUB DUP2 AND DUP3 MSTORE PUSH1 0x1 PUSH1 0xA0 SHL SWAP1 DIV PUSH1 0xFF AND ISZERO ISZERO PUSH1 0x20 DUP3 ADD MSTORE PUSH1 0x1 DUP8 ADD SLOAD SWAP2 DUP2 ADD SWAP2 SWAP1 SWAP2 MSTORE PUSH1 0x2 DUP7 ADD SLOAD PUSH1 0x60 DUP3 ADD MSTORE PUSH1 0x3 DUP7 ADD SLOAD PUSH1 0x80 DUP3 ADD MSTORE PUSH1 0x4 DUP7 ADD SLOAD PUSH1 0xA0 DUP3 ADD MSTORE PUSH1 0x5 DUP7 ADD SLOAD PUSH1 0xC0 DUP3 ADD MSTORE PUSH1 0x0 SWAP1 PUSH2 0x1BA6 DUP2 DUP8 DUP8 DUP8 DUP8 PUSH2 0x26B0 JUMP JUMPDEST PUSH1 0x40 DUP1 MLOAD PUSH1 0xE0 DUP2 ADD DUP3 MSTORE DUP6 SLOAD PUSH1 0x1 PUSH1 0x1 PUSH1 0xA0 SHL SUB DUP2 AND DUP3 MSTORE PUSH1 0x1 PUSH1 0xA0 SHL SWAP1 DIV PUSH1 0xFF AND ISZERO ISZERO PUSH1 0x20 DUP3 ADD MSTORE PUSH1 0x1 DUP7 ADD SLOAD SWAP2 DUP2 ADD SWAP2 SWAP1 SWAP2 MSTORE PUSH1 0x2 DUP6 ADD SLOAD PUSH1 0x60 DUP3 ADD MSTORE PUSH1 0x3 DUP6 ADD SLOAD PUSH1 0x80 DUP3 ADD MSTORE PUSH1 0x4 DUP6 ADD SLOAD PUSH1 0xA0 DUP3 ADD MSTORE PUSH1 0x5 DUP6 ADD SLOAD PUSH1 0xC0 DUP3 ADD MSTORE PUSH1 0x0 SWAP1 PUSH2 0x1F6F DUP2 DUP7 DUP7 DUP7 PUSH2 0x26E9 JUMP JUMPDEST SWAP7 SWAP6 POP POP POP POP POP POP JUMP JUMPDEST PUSH1 0x40 DUP1 MLOAD PUSH1 0xE0 DUP2 ADD DUP3 MSTORE DUP5 SLOAD PUSH1 0x1 PUSH1 0x1 PUSH1 0xA0 SHL SUB DUP2 AND DUP3 MSTORE PUSH1 0x1 PUSH1 0xA0 SHL SWAP1 DIV PUSH1 0xFF AND ISZERO ISZERO PUSH1 0x20 DUP3 ADD MSTORE PUSH1 0x1 DUP6 ADD SLOAD SWAP2 DUP2 ADD SWAP2 SWAP1 SWAP2 MSTORE PUSH1 0x2 DUP5 ADD SLOAD PUSH1 0x60 DUP3 ADD MSTORE PUSH1 0x3 DUP5 ADD SLOAD PUSH1 0x80 DUP3 ADD MSTORE PUSH1 0x4 DUP5 ADD SLOAD PUSH1 0xA0 DUP3 ADD MSTORE PUSH1 0x5 DUP5 ADD SLOAD PUSH1 0xC0 DUP3 ADD MSTORE PUSH1 0x0 SWAP1 PUSH2 0x1FE4 DUP2 DUP6 DUP6 PUSH2 0x2777 JUMP JUMPDEST SWAP6 SWAP5 POP POP POP POP POP JUMP JUMPDEST PUSH1 0x0 DUP1 PUSH2 0x1FFA DUP4 DUP6 PUSH2 0x3414 JUMP JUMPDEST SWAP1 POP PUSH2 0x201B DUP5 ISZERO DUP1 PUSH2 0x2014 JUMPI POP DUP4 PUSH2 0x2012 DUP7 DUP5 PUSH2 0x33F2 JUMP JUMPDEST EQ JUMPDEST PUSH1 0x3 PUSH2 0x27A2 JUMP JUMPDEST DUP1 PUSH2 0x202A JUMPI PUSH1 0x0 SWAP2 POP POP PUSH2 0x579 JUMP JUMPDEST PUSH8 0xDE0B6B3A7640000 PUSH2 0x203E PUSH1 0x1 DUP4 PUSH2 0x3433 JUMP JUMPDEST PUSH2 0x2048 SWAP2 SWAP1 PUSH2 0x33F2 JUMP JUMPDEST PUSH2 0x2053 SWAP1 PUSH1 0x1 PUSH2 0x33DA JUMP JUMPDEST SWAP2 POP POP PUSH2 0x579 JUMP JUMPDEST PUSH1 0x0 DUP1 DUP5 PUSH2 0x2080 JUMPI PUSH1 0x1 PUSH1 0x1 PUSH1 0xA0 SHL SUB DUP7 AND PUSH1 0x0 SWAP1 DUP2 MSTORE PUSH1 0x5 PUSH1 0x20 MSTORE PUSH1 0x40 SWAP1 KECCAK256 PUSH2 0x2099 JUMP JUMPDEST PUSH1 0x1 PUSH1 0x1 PUSH1 0xA0 SHL SUB DUP7 AND PUSH1 0x0 SWAP1 DUP2 MSTORE PUSH1 0x4 PUSH1 0x20 MSTORE PUSH1 0x40 SWAP1 KECCAK256 JUMPDEST SWAP1 POP DUP1 PUSH1 0x0 DUP6 DUP2 MSTORE PUSH1 0x20 ADD SWAP1 DUP2 MSTORE PUSH1 0x20 ADD PUSH1 0x0 KECCAK256 SLOAD SWAP2 POP PUSH1 0x0 PUSH1 0x7 DUP4 DUP2 SLOAD DUP2 LT PUSH2 0x20C5 JUMPI PUSH2 0x20C5 PUSH2 0x34E3 JUMP JUMPDEST SWAP1 PUSH1 0x0 MSTORE PUSH1 0x20 PUSH1 0x0 KECCAK256 SWAP1 PUSH1 0x6 MUL ADD SWAP1 POP DUP4 DUP2 PUSH1 0x2 ADD SLOAD LT ISZERO PUSH2 0x2276 JUMPI PUSH1 0x40 DUP1 MLOAD PUSH1 0xE0 DUP2 ADD DUP3 MSTORE PUSH1 0x1 PUSH1 0x1 PUSH1 0xA0 SHL SUB DUP1 DUP11 AND DUP3 MSTORE DUP9 ISZERO ISZERO PUSH1 0x20 DUP4 ADD SWAP1 DUP2 MSTORE SWAP3 DUP3 ADD DUP9 DUP2 MSTORE PUSH1 0x60 DUP4 ADD DUP9 DUP2 MSTORE PUSH1 0x0 PUSH1 0x80 DUP6 ADD DUP2 DUP2 MSTORE PUSH1 0xA0 DUP7 ADD DUP3 DUP2 MSTORE PUSH1 0xC0 DUP8 ADD DUP4 DUP2 MSTORE PUSH1 0x7 DUP1 SLOAD PUSH1 0x1 DUP2 DUP2 ADD DUP4 SSTORE SWAP6 DUP3 SWAP1 MSTORE SWAP9 MLOAD PUSH1 0x6 SWAP1 SWAP10 MUL PUSH32 0xA66CC928B5EDB82AF9BD49922954155AB7B0942694BEA4CE44661D9A8736C688 DUP2 ADD DUP1 SLOAD SWAP12 MLOAD ISZERO ISZERO PUSH1 0x1 PUSH1 0xA0 SHL MUL PUSH21 0xFFFFFFFFFFFFFFFFFFFFFFFFFFFFFFFFFFFFFFFFFF NOT SWAP1 SWAP13 AND SWAP11 SWAP1 SWAP10 AND SWAP10 SWAP1 SWAP10 OR SWAP10 SWAP1 SWAP10 OR SWAP1 SWAP7 SSTORE SWAP4 MLOAD PUSH32 0xA66CC928B5EDB82AF9BD49922954155AB7B0942694BEA4CE44661D9A8736C689 DUP8 ADD SSTORE SWAP2 MLOAD PUSH32 0xA66CC928B5EDB82AF9BD49922954155AB7B0942694BEA4CE44661D9A8736C68A DUP7 ADD SSTORE SWAP1 MLOAD PUSH32 0xA66CC928B5EDB82AF9BD49922954155AB7B0942694BEA4CE44661D9A8736C68B DUP6 ADD SSTORE SWAP1 MLOAD PUSH32 0xA66CC928B5EDB82AF9BD49922954155AB7B0942694BEA4CE44661D9A8736C68C DUP5 ADD SSTORE SWAP1 MLOAD PUSH32 0xA66CC928B5EDB82AF9BD49922954155AB7B0942694BEA4CE44661D9A8736C68D SWAP1 SWAP3 ADD SWAP2 SWAP1 SWAP2 SSTORE SWAP1 SLOAD PUSH2 0x2262 SWAP2 SWAP1 PUSH2 0x3433 JUMP JUMPDEST PUSH1 0x0 DUP7 DUP2 MSTORE PUSH1 0x20 DUP5 SWAP1 MSTORE PUSH1 0x40 SWAP1 KECCAK256 DUP2 SWAP1 SSTORE SWAP3 POP JUMPDEST POP POP SWAP5 SWAP4 POP POP POP POP JUMP JUMPDEST PUSH2 0x228C DUP5 DUP5 DUP5 DUP5 PUSH2 0x27B4 JUMP JUMPDEST PUSH1 0x0 DUP4 DUP2 MSTORE PUSH1 0x3 PUSH1 0x20 MSTORE PUSH1 0x40 DUP2 KECCAK256 DUP1 SLOAD DUP5 SWAP3 SWAP1 PUSH2 0x22AA SWAP1 DUP5 SWAP1 PUSH2 0x33DA JUMP JUMPDEST SWAP1 SWAP2 SSTORE POP POP POP POP POP POP JUMP JUMPDEST PUSH1 0x40 DUP1 MLOAD PUSH1 0xE0 DUP2 ADD DUP3 MSTORE DUP6 SLOAD PUSH1 0x1 PUSH1 0x1 PUSH1 0xA0 SHL SUB DUP2 AND DUP3 MSTORE PUSH1 0x1 PUSH1 0xA0 SHL SWAP1 DIV PUSH1 0xFF AND ISZERO ISZERO PUSH1 0x20 DUP3 ADD MSTORE PUSH1 0x1 DUP7 ADD SLOAD SWAP2 DUP2 ADD SWAP2 SWAP1 SWAP2 MSTORE PUSH1 0x2 DUP6 ADD SLOAD PUSH1 0x60 DUP3 ADD MSTORE PUSH1 0x3 DUP6 ADD SLOAD PUSH1 0x80 DUP3 ADD MSTORE PUSH1 0x4 DUP6 ADD SLOAD PUSH1 0xA0 DUP3 ADD MSTORE PUSH1 0x5 DUP6 ADD SLOAD PUSH1 0xC0 DUP3 ADD MSTORE PUSH1 0x0 SWAP1 PUSH2 0x1F6F DUP2 DUP7 DUP7 DUP7 PUSH2 0x28B5 JUMP JUMPDEST PUSH2 0x232C DUP4 DUP4 DUP4 PUSH2 0x28D6 JUMP JUMPDEST PUSH1 0x0 DUP3 DUP2 MSTORE PUSH1 0x3 PUSH1 0x20 MSTORE PUSH1 0x40 DUP2 KECCAK256 DUP1 SLOAD DUP4 SWAP3 SWAP1 PUSH2 0x234A SWAP1 DUP5 SWAP1 PUSH2 0x3433 JUMP JUMPDEST SWAP1 SWAP2 SSTORE POP POP POP POP POP JUMP JUMPDEST PUSH1 0x1 PUSH1 0x1 PUSH1 0xA0 SHL SUB DUP5 AND PUSH2 0x23B8 JUMPI PUSH1 0x40 MLOAD PUSH3 0x461BCD PUSH1 0xE5 SHL DUP2 MSTORE PUSH1 0x20 PUSH1 0x4 DUP3 ADD MSTORE PUSH1 0x25 PUSH1 0x24 DUP3 ADD MSTORE PUSH32 0x455243313135353A207472616E7366657220746F20746865207A65726F206164 PUSH1 0x44 DUP3 ADD MSTORE PUSH5 0x6472657373 PUSH1 0xD8 SHL PUSH1 0x64 DUP3 ADD MSTORE PUSH1 0x84 ADD PUSH2 0x54D JUMP JUMPDEST CALLER PUSH2 0x23D1 DUP2 DUP8 DUP8 PUSH2 0x23C8 DUP9 PUSH2 0x2A50 JUMP JUMPDEST PUSH2 0x6FE DUP9 PUSH2 0x2A50 JUMP JUMPDEST PUSH1 0x0 DUP5 DUP2 MSTORE PUSH1 0x20 DUP2 DUP2 MSTORE PUSH1 0x40 DUP1 DUP4 KECCAK256 PUSH1 0x1 PUSH1 0x1 PUSH1 0xA0 SHL SUB DUP11 AND DUP5 MSTORE SWAP1 SWAP2 MSTORE SWAP1 KECCAK256 SLOAD DUP4 DUP2 LT ISZERO PUSH2 0x2455 JUMPI PUSH1 0x40 MLOAD PUSH3 0x461BCD PUSH1 0xE5 SHL DUP2 MSTORE PUSH1 0x20 PUSH1 0x4 DUP3 ADD MSTORE PUSH1 0x2A PUSH1 0x24 DUP3 ADD MSTORE PUSH32 0x455243313135353A20696E73756666696369656E742062616C616E636520666F PUSH1 0x44 DUP3 ADD MSTORE PUSH10 0x39103A3930B739B332B9 PUSH1 0xB1 SHL PUSH1 0x64 DUP3 ADD MSTORE PUSH1 0x84 ADD PUSH2 0x54D JUMP JUMPDEST PUSH1 0x0 DUP6 DUP2 MSTORE PUSH1 0x20 DUP2 DUP2 MSTORE PUSH1 0x40 DUP1 DUP4 KECCAK256 PUSH1 0x1 PUSH1 0x1 PUSH1 0xA0 SHL SUB DUP12 DUP2 AND DUP6 MSTORE SWAP3 MSTORE DUP1 DUP4 KECCAK256 DUP8 DUP6 SUB SWAP1 SSTORE SWAP1 DUP9 AND DUP3 MSTORE DUP2 KECCAK256 DUP1 SLOAD DUP7 SWAP3 SWAP1 PUSH2 0x2492 SWAP1 DUP5 SWAP1 PUSH2 0x33DA JUMP JUMPDEST SWAP1 SWAP2 SSTORE POP POP PUSH1 0x40 DUP1 MLOAD DUP7 DUP2 MSTORE PUSH1 0x20 DUP2 ADD DUP7 SWAP1 MSTORE PUSH1 0x1 PUSH1 0x1 PUSH1 0xA0 SHL SUB DUP1 DUP10 AND SWAP3 DUP11 DUP3 AND SWAP3 SWAP2 DUP7 AND SWAP2 PUSH32 0xC3D58168C5AE7397731D063D5BBF3D657854427343F4C083240F7AACAA2D0F62 SWAP2 ADD PUSH1 0x40 MLOAD DUP1 SWAP2 SUB SWAP1 LOG4 PUSH2 0x24F2 DUP3 DUP9 DUP9 DUP9 DUP9 DUP9 PUSH2 0x2A9B JUMP JUMPDEST POP POP POP POP POP POP POP JUMP JUMPDEST PUSH1 0x1 PUSH1 0x1 PUSH1 0xA0 SHL SUB DUP5 AND EXTCODESIZE ISZERO PUSH2 0x1E8E JUMPI PUSH1 0x40 MLOAD PUSH4 0xBC197C81 PUSH1 0xE0 SHL DUP2 MSTORE PUSH1 0x1 PUSH1 0x1 PUSH1 0xA0 SHL SUB DUP6 AND SWAP1 PUSH4 0xBC197C81 SWAP1 PUSH2 0x253F SWAP1 DUP10 SWAP1 DUP10 SWAP1 DUP9 SWAP1 DUP9 SWAP1 DUP9 SWAP1 PUSH1 0x4 ADD PUSH2 0x32D5 JUMP JUMPDEST PUSH1 0x20 PUSH1 0x40 MLOAD DUP1 DUP4 SUB DUP2 PUSH1 0x0 DUP8 DUP1 EXTCODESIZE ISZERO DUP1 ISZERO PUSH2 0x2559 JUMPI PUSH1 0x0 DUP1 REVERT JUMPDEST POP GAS CALL SWAP3 POP POP POP DUP1 ISZERO PUSH2 0x2589 JUMPI POP PUSH1 0x40 DUP1 MLOAD PUSH1 0x1F RETURNDATASIZE SWAP1 DUP2 ADD PUSH1 0x1F NOT AND DUP3 ADD SWAP1 SWAP3 MSTORE PUSH2 0x2586 SWAP2 DUP2 ADD SWAP1 PUSH2 0x3106 JUMP JUMPDEST PUSH1 0x1 JUMPDEST PUSH2 0x263F JUMPI PUSH2 0x2595 PUSH2 0x350F JUMP JUMPDEST DUP1 PUSH4 0x8C379A0 EQ ISZERO PUSH2 0x25CF JUMPI POP PUSH2 0x25AA PUSH2 0x352B JUMP JUMPDEST DUP1 PUSH2 0x25B5 JUMPI POP PUSH2 0x25D1 JUMP JUMPDEST DUP1 PUSH1 0x40 MLOAD PUSH3 0x461BCD PUSH1 0xE5 SHL DUP2 MSTORE PUSH1 0x4 ADD PUSH2 0x54D SWAP2 SWAP1 PUSH2 0x33A3 JUMP JUMPDEST POP JUMPDEST PUSH1 0x40 MLOAD PUSH3 0x461BCD PUSH1 0xE5 SHL DUP2 MSTORE PUSH1 0x20 PUSH1 0x4 DUP3 ADD MSTORE PUSH1 0x34 PUSH1 0x24 DUP3 ADD MSTORE PUSH32 0x455243313135353A207472616E7366657220746F206E6F6E2045524331313535 PUSH1 0x44 DUP3 ADD MSTORE PUSH32 0x526563656976657220696D706C656D656E746572000000000000000000000000 PUSH1 0x64 DUP3 ADD MSTORE PUSH1 0x84 ADD PUSH2 0x54D JUMP JUMPDEST PUSH1 0x1 PUSH1 0x1 PUSH1 0xE0 SHL SUB NOT DUP2 AND PUSH4 0xBC197C81 PUSH1 0xE0 SHL EQ PUSH2 0x24F2 JUMPI PUSH1 0x40 MLOAD PUSH3 0x461BCD PUSH1 0xE5 SHL DUP2 MSTORE PUSH1 0x20 PUSH1 0x4 DUP3 ADD MSTORE PUSH1 0x28 PUSH1 0x24 DUP3 ADD MSTORE PUSH32 0x455243313135353A204552433131353552656365697665722072656A65637465 PUSH1 0x44 DUP3 ADD MSTORE PUSH8 0x6420746F6B656E73 PUSH1 0xC0 SHL PUSH1 0x64 DUP3 ADD MSTORE PUSH1 0x84 ADD PUSH2 0x54D JUMP JUMPDEST PUSH1 0x0 DUP1 PUSH2 0x26BF DUP8 DUP8 DUP8 DUP8 PUSH2 0x26E9 JUMP JUMPDEST SWAP1 POP PUSH1 0x0 PUSH2 0x26CC DUP9 PUSH2 0x2BA6 JUMP JUMPDEST SWAP1 POP PUSH1 0x0 PUSH2 0x26DA DUP3 DUP7 PUSH2 0x1FED JUMP JUMPDEST SWAP1 SWAP3 LT SWAP9 SWAP8 POP POP POP POP POP POP POP POP JUMP JUMPDEST PUSH1 0x0 DUP1 PUSH2 0x26F7 DUP7 DUP7 DUP7 PUSH2 0x2777 JUMP JUMPDEST SWAP1 POP DUP6 PUSH1 0x20 ADD MLOAD ISZERO PUSH2 0x272E JUMPI PUSH2 0x270D DUP2 DUP5 PUSH2 0x2BBC JUMP JUMPDEST SWAP2 POP PUSH2 0x271D DUP3 DUP8 PUSH1 0xA0 ADD MLOAD PUSH2 0x2BF3 JUMP JUMPDEST PUSH2 0x2727 SWAP1 DUP4 PUSH2 0x3433 JUMP JUMPDEST SWAP2 POP PUSH2 0x276E JUMP JUMPDEST PUSH2 0x2740 DUP2 PUSH8 0x1BC16D674EC80000 PUSH2 0x2BBC JUMP JUMPDEST SWAP2 POP PUSH2 0x2764 DUP3 PUSH2 0x2750 DUP4 DUP7 PUSH2 0x2BBC JUMP JUMPDEST DUP9 PUSH1 0xA0 ADD MLOAD PUSH2 0x275F SWAP2 SWAP1 PUSH2 0x33DA JUMP JUMPDEST PUSH2 0x2BF3 JUMP JUMPDEST PUSH2 0x1F6F SWAP1 DUP4 PUSH2 0x3433 JUMP JUMPDEST POP SWAP5 SWAP4 POP POP POP POP JUMP JUMPDEST PUSH1 0x0 PUSH2 0x279A DUP3 PUSH2 0x2794 DUP6 DUP8 PUSH1 0x80 ADD MLOAD PUSH2 0x2BBC SWAP1 SWAP2 SWAP1 PUSH4 0xFFFFFFFF AND JUMP JUMPDEST SWAP1 PUSH2 0x2C0B JUMP JUMPDEST SWAP5 SWAP4 POP POP POP POP JUMP JUMPDEST DUP2 PUSH2 0x27B0 JUMPI PUSH2 0x27B0 DUP2 PUSH2 0x2C67 JUMP JUMPDEST POP POP JUMP JUMPDEST PUSH1 0x1 PUSH1 0x1 PUSH1 0xA0 SHL SUB DUP5 AND PUSH2 0x2814 JUMPI PUSH1 0x40 MLOAD PUSH3 0x461BCD PUSH1 0xE5 SHL DUP2 MSTORE PUSH1 0x20 PUSH1 0x4 DUP3 ADD MSTORE PUSH1 0x21 PUSH1 0x24 DUP3 ADD MSTORE PUSH32 0x455243313135353A206D696E7420746F20746865207A65726F20616464726573 PUSH1 0x44 DUP3 ADD MSTORE PUSH1 0x73 PUSH1 0xF8 SHL PUSH1 0x64 DUP3 ADD MSTORE PUSH1 0x84 ADD PUSH2 0x54D JUMP JUMPDEST CALLER PUSH2 0x2825 DUP2 PUSH1 0x0 DUP8 PUSH2 0x23C8 DUP9 PUSH2 0x2A50 JUMP JUMPDEST PUSH1 0x0 DUP5 DUP2 MSTORE PUSH1 0x20 DUP2 DUP2 MSTORE PUSH1 0x40 DUP1 DUP4 KECCAK256 PUSH1 0x1 PUSH1 0x1 PUSH1 0xA0 SHL SUB DUP10 AND DUP5 MSTORE SWAP1 SWAP2 MSTORE DUP2 KECCAK256 DUP1 SLOAD DUP6 SWAP3 SWAP1 PUSH2 0x2855 SWAP1 DUP5 SWAP1 PUSH2 0x33DA JUMP JUMPDEST SWAP1 SWAP2 SSTORE POP POP PUSH1 0x40 DUP1 MLOAD DUP6 DUP2 MSTORE PUSH1 0x20 DUP2 ADD DUP6 SWAP1 MSTORE PUSH1 0x1 PUSH1 0x1 PUSH1 0xA0 SHL SUB DUP1 DUP9 AND SWAP3 PUSH1 0x0 SWAP3 SWAP2 DUP6 AND SWAP2 PUSH32 0xC3D58168C5AE7397731D063D5BBF3D657854427343F4C083240F7AACAA2D0F62 SWAP2 ADD PUSH1 0x40 MLOAD DUP1 SWAP2 SUB SWAP1 LOG4 PUSH2 0x6FE DUP2 PUSH1 0x0 DUP8 DUP8 DUP8 DUP8 PUSH2 0x2A9B JUMP JUMPDEST PUSH1 0x0 DUP1 PUSH2 0x28C4 DUP7 DUP7 DUP7 DUP7 PUSH2 0x26E9 JUMP JUMPDEST SWAP1 POP DUP6 PUSH1 0xA0 ADD MLOAD DUP2 PUSH2 0x1F6F SWAP2 SWAP1 PUSH2 0x33DA JUMP JUMPDEST PUSH1 0x1 PUSH1 0x1 PUSH1 0xA0 SHL SUB DUP4 AND PUSH2 0x2938 JUMPI PUSH1 0x40 MLOAD PUSH3 0x461BCD PUSH1 0xE5 SHL DUP2 MSTORE PUSH1 0x20 PUSH1 0x4 DUP3 ADD MSTORE PUSH1 0x23 PUSH1 0x24 DUP3 ADD MSTORE PUSH32 0x455243313135353A206275726E2066726F6D20746865207A65726F2061646472 PUSH1 0x44 DUP3 ADD MSTORE PUSH3 0x657373 PUSH1 0xE8 SHL PUSH1 0x64 DUP3 ADD MSTORE PUSH1 0x84 ADD PUSH2 0x54D JUMP JUMPDEST CALLER PUSH2 0x2968 DUP2 DUP6 PUSH1 0x0 PUSH2 0x2949 DUP8 PUSH2 0x2A50 JUMP JUMPDEST PUSH2 0x2952 DUP8 PUSH2 0x2A50 JUMP JUMPDEST POP POP PUSH1 0x40 DUP1 MLOAD PUSH1 0x20 DUP2 ADD SWAP1 SWAP2 MSTORE PUSH1 0x0 SWAP1 MSTORE POP POP POP JUMP JUMPDEST PUSH1 0x0 DUP4 DUP2 MSTORE PUSH1 0x20 DUP2 DUP2 MSTORE PUSH1 0x40 DUP1 DUP4 KECCAK256 PUSH1 0x1 PUSH1 0x1 PUSH1 0xA0 SHL SUB DUP9 AND DUP5 MSTORE SWAP1 SWAP2 MSTORE SWAP1 KECCAK256 SLOAD DUP3 DUP2 LT ISZERO PUSH2 0x29E5 JUMPI PUSH1 0x40 MLOAD PUSH3 0x461BCD PUSH1 0xE5 SHL DUP2 MSTORE PUSH1 0x20 PUSH1 0x4 DUP3 ADD MSTORE PUSH1 0x24 DUP1 DUP3 ADD MSTORE PUSH32 0x455243313135353A206275726E20616D6F756E7420657863656564732062616C PUSH1 0x44 DUP3 ADD MSTORE PUSH4 0x616E6365 PUSH1 0xE0 SHL PUSH1 0x64 DUP3 ADD MSTORE PUSH1 0x84 ADD PUSH2 0x54D JUMP JUMPDEST PUSH1 0x0 DUP5 DUP2 MSTORE PUSH1 0x20 DUP2 DUP2 MSTORE PUSH1 0x40 DUP1 DUP4 KECCAK256 PUSH1 0x1 PUSH1 0x1 PUSH1 0xA0 SHL SUB DUP10 DUP2 AND DUP1 DUP7 MSTORE SWAP2 DUP5 MSTORE DUP3 DUP6 KECCAK256 DUP9 DUP8 SUB SWAP1 SSTORE DUP3 MLOAD DUP10 DUP2 MSTORE SWAP4 DUP5 ADD DUP9 SWAP1 MSTORE SWAP1 SWAP3 SWAP1 DUP7 AND SWAP2 PUSH32 0xC3D58168C5AE7397731D063D5BBF3D657854427343F4C083240F7AACAA2D0F62 SWAP2 ADD PUSH1 0x40 MLOAD DUP1 SWAP2 SUB SWAP1 LOG4 POP POP POP POP POP JUMP JUMPDEST PUSH1 0x40 DUP1 MLOAD PUSH1 0x1 DUP1 DUP3 MSTORE DUP2 DUP4 ADD SWAP1 SWAP3 MSTORE PUSH1 0x60 SWAP2 PUSH1 0x0 SWAP2 SWAP1 PUSH1 0x20 DUP1 DUP4 ADD SWAP1 DUP1 CALLDATASIZE DUP4 CALLDATACOPY ADD SWAP1 POP POP SWAP1 POP DUP3 DUP2 PUSH1 0x0 DUP2 MLOAD DUP2 LT PUSH2 0x2A8A JUMPI PUSH2 0x2A8A PUSH2 0x34E3 JUMP JUMPDEST PUSH1 0x20 SWAP1 DUP2 MUL SWAP2 SWAP1 SWAP2 ADD ADD MSTORE SWAP3 SWAP2 POP POP JUMP JUMPDEST PUSH1 0x1 PUSH1 0x1 PUSH1 0xA0 SHL SUB DUP5 AND EXTCODESIZE ISZERO PUSH2 0x1E8E JUMPI PUSH1 0x40 MLOAD PUSH4 0xF23A6E61 PUSH1 0xE0 SHL DUP2 MSTORE PUSH1 0x1 PUSH1 0x1 PUSH1 0xA0 SHL SUB DUP6 AND SWAP1 PUSH4 0xF23A6E61 SWAP1 PUSH2 0x2ADF SWAP1 DUP10 SWAP1 DUP10 SWAP1 DUP9 SWAP1 DUP9 SWAP1 DUP9 SWAP1 PUSH1 0x4 ADD PUSH2 0x3333 JUMP JUMPDEST PUSH1 0x20 PUSH1 0x40 MLOAD DUP1 DUP4 SUB DUP2 PUSH1 0x0 DUP8 DUP1 EXTCODESIZE ISZERO DUP1 ISZERO PUSH2 0x2AF9 JUMPI PUSH1 0x0 DUP1 REVERT JUMPDEST POP GAS CALL SWAP3 POP POP POP DUP1 ISZERO PUSH2 0x2B29 JUMPI POP PUSH1 0x40 DUP1 MLOAD PUSH1 0x1F RETURNDATASIZE SWAP1 DUP2 ADD PUSH1 0x1F NOT AND DUP3 ADD SWAP1 SWAP3 MSTORE PUSH2 0x2B26 SWAP2 DUP2 ADD SWAP1 PUSH2 0x3106 JUMP JUMPDEST PUSH1 0x1 JUMPDEST PUSH2 0x2B35 JUMPI PUSH2 0x2595 PUSH2 0x350F JUMP JUMPDEST PUSH1 0x1 PUSH1 0x1 PUSH1 0xE0 SHL SUB NOT DUP2 AND PUSH4 0xF23A6E61 PUSH1 0xE0 SHL EQ PUSH2 0x24F2 JUMPI PUSH1 0x40 MLOAD PUSH3 0x461BCD PUSH1 0xE5 SHL DUP2 MSTORE PUSH1 0x20 PUSH1 0x4 DUP3 ADD MSTORE PUSH1 0x28 PUSH1 0x24 DUP3 ADD MSTORE PUSH32 0x455243313135353A204552433131353552656365697665722072656A65637465 PUSH1 0x44 DUP3 ADD MSTORE PUSH8 0x6420746F6B656E73 PUSH1 0xC0 SHL PUSH1 0x64 DUP3 ADD MSTORE PUSH1 0x84 ADD PUSH2 0x54D JUMP JUMPDEST PUSH1 0x0 DUP2 PUSH1 0xA0 ADD MLOAD DUP3 PUSH1 0xC0 ADD MLOAD PUSH2 0x579 SWAP2 SWAP1 PUSH2 0x33DA JUMP JUMPDEST PUSH1 0x0 DUP1 PUSH2 0x2BC9 DUP4 DUP6 PUSH2 0x3414 JUMP JUMPDEST SWAP1 POP PUSH2 0x2BE1 DUP5 ISZERO DUP1 PUSH2 0x2014 JUMPI POP DUP4 PUSH2 0x2012 DUP7 DUP5 PUSH2 0x33F2 JUMP JUMPDEST PUSH2 0x279A PUSH8 0xDE0B6B3A7640000 DUP3 PUSH2 0x33F2 JUMP JUMPDEST PUSH1 0x0 DUP2 DUP4 LT PUSH2 0x2C02 JUMPI DUP2 PUSH2 0x2C04 JUMP JUMPDEST DUP3 JUMPDEST SWAP4 SWAP3 POP POP POP JUMP JUMPDEST PUSH1 0x0 PUSH2 0x2C1A DUP3 ISZERO ISZERO PUSH1 0x4 PUSH2 0x27A2 JUMP JUMPDEST DUP3 PUSH2 0x2C27 JUMPI POP PUSH1 0x0 PUSH2 0x579 JUMP JUMPDEST PUSH1 0x0 PUSH2 0x2C3B PUSH8 0xDE0B6B3A7640000 DUP6 PUSH2 0x3414 JUMP JUMPDEST SWAP1 POP PUSH2 0x2C5B PUSH8 0xDE0B6B3A7640000 PUSH2 0x2C53 DUP7 DUP5 PUSH2 0x33F2 JUMP JUMPDEST EQ PUSH1 0x5 PUSH2 0x27A2 JUMP JUMPDEST DUP3 PUSH2 0x203E PUSH1 0x1 DUP4 PUSH2 0x3433 JUMP JUMPDEST PUSH3 0x461BCD PUSH1 0xE5 SHL PUSH1 0x0 SWAP1 DUP2 MSTORE PUSH1 0x20 PUSH1 0x4 MSTORE PUSH1 0x7 PUSH1 0x24 MSTORE PUSH7 0x42414C23000030 PUSH1 0xA DUP1 DUP5 DIV DUP2 DUP2 MOD PUSH1 0x30 SWAP1 DUP2 ADD PUSH1 0x8 SHL SWAP6 DUP4 SWAP1 MOD SWAP6 SWAP1 SWAP6 ADD SWAP1 DUP3 SWAP1 DIV SWAP2 DUP3 MOD SWAP1 SWAP5 ADD PUSH1 0x10 SHL SWAP4 SWAP1 SWAP4 ADD ADD PUSH1 0xC8 SHL PUSH1 0x44 MSTORE PUSH1 0x64 SWAP1 REVERT JUMPDEST PUSH1 0x0 DUP3 PUSH1 0x1F DUP4 ADD SLT PUSH2 0x2CCB JUMPI PUSH1 0x0 DUP1 REVERT JUMPDEST DUP2 CALLDATALOAD PUSH1 0x20 PUSH2 0x2CD8 DUP3 PUSH2 0x33B6 JUMP JUMPDEST PUSH1 0x40 MLOAD PUSH2 0x2CE5 DUP3 DUP3 PUSH2 0x3485 JUMP JUMPDEST DUP4 DUP2 MSTORE DUP3 DUP2 ADD SWAP2 POP DUP6 DUP4 ADD PUSH1 0x5 DUP6 SWAP1 SHL DUP8 ADD DUP5 ADD DUP9 LT ISZERO PUSH2 0x2D05 JUMPI PUSH1 0x0 DUP1 REVERT JUMPDEST PUSH1 0x0 JUMPDEST DUP6 DUP2 LT ISZERO PUSH2 0x2D24 JUMPI DUP2 CALLDATALOAD DUP5 MSTORE SWAP3 DUP5 ADD SWAP3 SWAP1 DUP5 ADD SWAP1 PUSH1 0x1 ADD PUSH2 0x2D08 JUMP JUMPDEST POP SWAP1 SWAP8 SWAP7 POP POP POP POP POP POP POP JUMP JUMPDEST PUSH1 0x0 DUP3 PUSH1 0x1F DUP4 ADD SLT PUSH2 0x2D42 JUMPI PUSH1 0x0 DUP1 REVERT JUMPDEST DUP2 CALLDATALOAD PUSH8 0xFFFFFFFFFFFFFFFF DUP2 GT ISZERO PUSH2 0x2D5C JUMPI PUSH2 0x2D5C PUSH2 0x34F9 JUMP JUMPDEST PUSH1 0x40 MLOAD PUSH2 0x2D73 PUSH1 0x1F DUP4 ADD PUSH1 0x1F NOT AND PUSH1 0x20 ADD DUP3 PUSH2 0x3485 JUMP JUMPDEST DUP2 DUP2 MSTORE DUP5 PUSH1 0x20 DUP4 DUP7 ADD ADD GT ISZERO PUSH2 0x2D88 JUMPI PUSH1 0x0 DUP1 REVERT JUMPDEST DUP2 PUSH1 0x20 DUP6 ADD PUSH1 0x20 DUP4 ADD CALLDATACOPY PUSH1 0x0 SWAP2 DUP2 ADD PUSH1 0x20 ADD SWAP2 SWAP1 SWAP2 MSTORE SWAP4 SWAP3 POP POP POP JUMP JUMPDEST PUSH1 0x0 PUSH1 0x20 DUP3 DUP5 SUB SLT ISZERO PUSH2 0x2DB7 JUMPI PUSH1 0x0 DUP1 REVERT JUMPDEST DUP2 CALLDATALOAD PUSH2 0x2C04 DUP2 PUSH2 0x35B5 JUMP JUMPDEST PUSH1 0x0 DUP1 PUSH1 0x40 DUP4 DUP6 SUB SLT ISZERO PUSH2 0x2DD5 JUMPI PUSH1 0x0 DUP1 REVERT JUMPDEST DUP3 CALLDATALOAD PUSH2 0x2DE0 DUP2 PUSH2 0x35B5 JUMP JUMPDEST SWAP2 POP PUSH1 0x20 DUP4 ADD CALLDATALOAD PUSH2 0x2DF0 DUP2 PUSH2 0x35B5 JUMP JUMPDEST DUP1 SWAP2 POP POP SWAP3 POP SWAP3 SWAP1 POP JUMP JUMPDEST PUSH1 0x0 DUP1 PUSH1 0x0 DUP1 PUSH1 0x0 PUSH1 0xA0 DUP7 DUP9 SUB SLT ISZERO PUSH2 0x2E13 JUMPI PUSH1 0x0 DUP1 REVERT JUMPDEST DUP6 CALLDATALOAD PUSH2 0x2E1E DUP2 PUSH2 0x35B5 JUMP JUMPDEST SWAP5 POP PUSH1 0x20 DUP7 ADD CALLDATALOAD PUSH2 0x2E2E DUP2 PUSH2 0x35B5 JUMP JUMPDEST SWAP4 POP PUSH1 0x40 DUP7 ADD CALLDATALOAD PUSH8 0xFFFFFFFFFFFFFFFF DUP1 DUP3 GT ISZERO PUSH2 0x2E4B JUMPI PUSH1 0x0 DUP1 REVERT JUMPDEST PUSH2 0x2E57 DUP10 DUP4 DUP11 ADD PUSH2 0x2CBA JUMP JUMPDEST SWAP5 POP PUSH1 0x60 DUP9 ADD CALLDATALOAD SWAP2 POP DUP1 DUP3 GT ISZERO PUSH2 0x2E6D JUMPI PUSH1 0x0 DUP1 REVERT JUMPDEST PUSH2 0x2E79 DUP10 DUP4 DUP11 ADD PUSH2 0x2CBA JUMP JUMPDEST SWAP4 POP PUSH1 0x80 DUP9 ADD CALLDATALOAD SWAP2 POP DUP1 DUP3 GT ISZERO PUSH2 0x2E8F JUMPI PUSH1 0x0 DUP1 REVERT JUMPDEST POP PUSH2 0x2E9C DUP9 DUP3 DUP10 ADD PUSH2 0x2D31 JUMP JUMPDEST SWAP2 POP POP SWAP3 SWAP6 POP SWAP3 SWAP6 SWAP1 SWAP4 POP JUMP JUMPDEST PUSH1 0x0 DUP1 PUSH1 0x0 DUP1 PUSH1 0x0 PUSH1 0xA0 DUP7 DUP9 SUB SLT ISZERO PUSH2 0x2EC1 JUMPI PUSH1 0x0 DUP1 REVERT JUMPDEST DUP6 CALLDATALOAD PUSH2 0x2ECC DUP2 PUSH2 0x35B5 JUMP JUMPDEST SWAP5 POP PUSH1 0x20 DUP7 ADD CALLDATALOAD PUSH2 0x2EDC DUP2 PUSH2 0x35B5 JUMP JUMPDEST SWAP4 POP PUSH1 0x40 DUP7 ADD CALLDATALOAD SWAP3 POP PUSH1 0x60 DUP7 ADD CALLDATALOAD SWAP2 POP PUSH1 0x80 DUP7 ADD CALLDATALOAD PUSH8 0xFFFFFFFFFFFFFFFF DUP2 GT ISZERO PUSH2 0x2F06 JUMPI PUSH1 0x0 DUP1 REVERT JUMPDEST PUSH2 0x2E9C DUP9 DUP3 DUP10 ADD PUSH2 0x2D31 JUMP JUMPDEST PUSH1 0x0 DUP1 PUSH1 0x40 DUP4 DUP6 SUB SLT ISZERO PUSH2 0x2F25 JUMPI PUSH1 0x0 DUP1 REVERT JUMPDEST DUP3 CALLDATALOAD PUSH2 0x2F30 DUP2 PUSH2 0x35B5 JUMP JUMPDEST SWAP2 POP PUSH1 0x20 DUP4 ADD CALLDATALOAD PUSH2 0x2DF0 DUP2 PUSH2 0x35CD JUMP JUMPDEST PUSH1 0x0 DUP1 PUSH1 0x40 DUP4 DUP6 SUB SLT ISZERO PUSH2 0x2F53 JUMPI PUSH1 0x0 DUP1 REVERT JUMPDEST DUP3 CALLDATALOAD PUSH2 0x2F5E DUP2 PUSH2 0x35B5 JUMP JUMPDEST SWAP5 PUSH1 0x20 SWAP4 SWAP1 SWAP4 ADD CALLDATALOAD SWAP4 POP POP POP JUMP JUMPDEST PUSH1 0x0 DUP1 PUSH1 0x0 DUP1 PUSH1 0x0 PUSH1 0xA0 DUP7 DUP9 SUB SLT ISZERO PUSH2 0x2F84 JUMPI PUSH1 0x0 DUP1 REVERT JUMPDEST DUP6 CALLDATALOAD PUSH2 0x2F8F DUP2 PUSH2 0x35B5 JUMP JUMPDEST SWAP5 POP PUSH1 0x20 DUP7 ADD CALLDATALOAD SWAP4 POP PUSH1 0x40 DUP7 ADD CALLDATALOAD SWAP3 POP PUSH1 0x60 DUP7 ADD CALLDATALOAD PUSH2 0x2FAD DUP2 PUSH2 0x35CD JUMP JUMPDEST SWAP5 SWAP8 SWAP4 SWAP7 POP SWAP2 SWAP5 PUSH1 0x80 ADD CALLDATALOAD SWAP3 SWAP2 POP POP JUMP JUMPDEST PUSH1 0x0 DUP1 PUSH1 0x0 DUP1 PUSH1 0x80 DUP6 DUP8 SUB SLT ISZERO PUSH2 0x2FD4 JUMPI PUSH1 0x0 DUP1 REVERT JUMPDEST DUP5 CALLDATALOAD PUSH2 0x2FDF DUP2 PUSH2 0x35B5 JUMP JUMPDEST SWAP7 PUSH1 0x20 DUP7 ADD CALLDATALOAD SWAP7 POP PUSH1 0x40 DUP7 ADD CALLDATALOAD SWAP6 PUSH1 0x60 ADD CALLDATALOAD SWAP5 POP SWAP3 POP POP POP JUMP JUMPDEST PUSH1 0x0 DUP1 PUSH1 0x40 DUP4 DUP6 SUB SLT ISZERO PUSH2 0x300C JUMPI PUSH1 0x0 DUP1 REVERT JUMPDEST DUP3 CALLDATALOAD PUSH8 0xFFFFFFFFFFFFFFFF DUP1 DUP3 GT ISZERO PUSH2 0x3024 JUMPI PUSH1 0x0 DUP1 REVERT JUMPDEST DUP2 DUP6 ADD SWAP2 POP DUP6 PUSH1 0x1F DUP4 ADD SLT PUSH2 0x3038 JUMPI PUSH1 0x0 DUP1 REVERT JUMPDEST DUP2 CALLDATALOAD PUSH1 0x20 PUSH2 0x3045 DUP3 PUSH2 0x33B6 JUMP JUMPDEST PUSH1 0x40 MLOAD PUSH2 0x3052 DUP3 DUP3 PUSH2 0x3485 JUMP JUMPDEST DUP4 DUP2 MSTORE DUP3 DUP2 ADD SWAP2 POP DUP6 DUP4 ADD PUSH1 0x5 DUP6 SWAP1 SHL DUP8 ADD DUP5 ADD DUP12 LT ISZERO PUSH2 0x3072 JUMPI PUSH1 0x0 DUP1 REVERT JUMPDEST PUSH1 0x0 SWAP7 POP JUMPDEST DUP5 DUP8 LT ISZERO PUSH2 0x309E JUMPI DUP1 CALLDATALOAD PUSH2 0x308A DUP2 PUSH2 0x35B5 JUMP JUMPDEST DUP4 MSTORE PUSH1 0x1 SWAP7 SWAP1 SWAP7 ADD SWAP6 SWAP2 DUP4 ADD SWAP2 DUP4 ADD PUSH2 0x3077 JUMP JUMPDEST POP SWAP7 POP POP DUP7 ADD CALLDATALOAD SWAP3 POP POP DUP1 DUP3 GT ISZERO PUSH2 0x30B5 JUMPI PUSH1 0x0 DUP1 REVERT JUMPDEST POP PUSH2 0x30C2 DUP6 DUP3 DUP7 ADD PUSH2 0x2CBA JUMP JUMPDEST SWAP2 POP POP SWAP3 POP SWAP3 SWAP1 POP JUMP JUMPDEST PUSH1 0x0 PUSH1 0x20 DUP3 DUP5 SUB SLT ISZERO PUSH2 0x30DE JUMPI PUSH1 0x0 DUP1 REVERT JUMPDEST DUP2 MLOAD PUSH2 0x2C04 DUP2 PUSH2 0x35CD JUMP JUMPDEST PUSH1 0x0 PUSH1 0x20 DUP3 DUP5 SUB SLT ISZERO PUSH2 0x30FB JUMPI PUSH1 0x0 DUP1 REVERT JUMPDEST DUP2 CALLDATALOAD PUSH2 0x2C04 DUP2 PUSH2 0x35DB JUMP JUMPDEST PUSH1 0x0 PUSH1 0x20 DUP3 DUP5 SUB SLT ISZERO PUSH2 0x3118 JUMPI PUSH1 0x0 DUP1 REVERT JUMPDEST DUP2 MLOAD PUSH2 0x2C04 DUP2 PUSH2 0x35DB JUMP JUMPDEST PUSH1 0x0 PUSH1 0x20 DUP3 DUP5 SUB SLT ISZERO PUSH2 0x3135 JUMPI PUSH1 0x0 DUP1 REVERT JUMPDEST POP CALLDATALOAD SWAP2 SWAP1 POP JUMP JUMPDEST PUSH1 0x0 PUSH1 0x20 DUP3 DUP5 SUB SLT ISZERO PUSH2 0x314E JUMPI PUSH1 0x0 DUP1 REVERT JUMPDEST POP MLOAD SWAP2 SWAP1 POP JUMP JUMPDEST PUSH1 0x0 DUP1 PUSH1 0x40 DUP4 DUP6 SUB SLT ISZERO PUSH2 0x3168 JUMPI PUSH1 0x0 DUP1 REVERT JUMPDEST DUP3 CALLDATALOAD SWAP2 POP PUSH1 0x20 DUP4 ADD CALLDATALOAD PUSH2 0x2DF0 DUP2 PUSH2 0x35B5 JUMP JUMPDEST PUSH1 0x0 DUP1 PUSH1 0x40 DUP4 DUP6 SUB SLT ISZERO PUSH2 0x318D JUMPI PUSH1 0x0 DUP1 REVERT JUMPDEST POP POP DUP1 CALLDATALOAD SWAP3 PUSH1 0x20 SWAP1 SWAP2 ADD CALLDATALOAD SWAP2 POP JUMP JUMPDEST PUSH1 0x0 DUP1 PUSH1 0x0 PUSH1 0x60 DUP5 DUP7 SUB SLT ISZERO PUSH2 0x31B1 JUMPI PUSH1 0x0 DUP1 REVERT JUMPDEST DUP4 MLOAD SWAP3 POP PUSH1 0x20 DUP5 ADD MLOAD SWAP2 POP PUSH1 0x40 DUP5 ADD MLOAD PUSH2 0x31CA DUP2 PUSH2 0x35B5 JUMP JUMPDEST DUP1 SWAP2 POP POP SWAP3 POP SWAP3 POP SWAP3 JUMP JUMPDEST PUSH1 0x0 DUP1 PUSH1 0x0 PUSH1 0x60 DUP5 DUP7 SUB SLT ISZERO PUSH2 0x31EA JUMPI PUSH1 0x0 DUP1 REVERT JUMPDEST DUP4 MLOAD SWAP3 POP PUSH1 0x20 DUP5 ADD MLOAD SWAP2 POP PUSH1 0x40 DUP5 ADD MLOAD SWAP1 POP SWAP3 POP SWAP3 POP SWAP3 JUMP JUMPDEST PUSH1 0x0 DUP1 PUSH1 0x0 DUP1 PUSH1 0x0 DUP1 PUSH1 0xC0 DUP8 DUP10 SUB SLT ISZERO PUSH2 0x321C JUMPI PUSH1 0x0 DUP1 REVERT JUMPDEST DUP7 MLOAD SWAP6 POP PUSH1 0x20 DUP8 ADD MLOAD SWAP5 POP PUSH1 0x40 DUP8 ADD MLOAD SWAP4 POP PUSH1 0x60 DUP8 ADD MLOAD SWAP3 POP PUSH1 0x80 DUP8 ADD MLOAD SWAP2 POP PUSH1 0xA0 DUP8 ADD MLOAD SWAP1 POP SWAP3 SWAP6 POP SWAP3 SWAP6 POP SWAP3 SWAP6 JUMP JUMPDEST PUSH1 0x0 DUP2 MLOAD DUP1 DUP5 MSTORE PUSH1 0x20 DUP1 DUP6 ADD SWAP5 POP DUP1 DUP5 ADD PUSH1 0x0 JUMPDEST DUP4 DUP2 LT ISZERO PUSH2 0x327D JUMPI DUP2 MLOAD DUP8 MSTORE SWAP6 DUP3 ADD SWAP6 SWAP1 DUP3 ADD SWAP1 PUSH1 0x1 ADD PUSH2 0x3261 JUMP JUMPDEST POP SWAP5 SWAP6 SWAP5 POP POP POP POP POP JUMP JUMPDEST PUSH1 0x0 DUP2 MLOAD DUP1 DUP5 MSTORE PUSH1 0x0 JUMPDEST DUP2 DUP2 LT ISZERO PUSH2 0x32AE JUMPI PUSH1 0x20 DUP2 DUP6 ADD DUP2 ADD MLOAD DUP7 DUP4 ADD DUP3 ADD MSTORE ADD PUSH2 0x3292 JUMP JUMPDEST DUP2 DUP2 GT ISZERO PUSH2 0x32C0 JUMPI PUSH1 0x0 PUSH1 0x20 DUP4 DUP8 ADD ADD MSTORE JUMPDEST POP PUSH1 0x1F ADD PUSH1 0x1F NOT AND SWAP3 SWAP1 SWAP3 ADD PUSH1 0x20 ADD SWAP3 SWAP2 POP POP JUMP JUMPDEST PUSH1 0x0 PUSH1 0x1 PUSH1 0x1 PUSH1 0xA0 SHL SUB DUP1 DUP9 AND DUP4 MSTORE DUP1 DUP8 AND PUSH1 0x20 DUP5 ADD MSTORE POP PUSH1 0xA0 PUSH1 0x40 DUP4 ADD MSTORE PUSH2 0x3301 PUSH1 0xA0 DUP4 ADD DUP7 PUSH2 0x324D JUMP JUMPDEST DUP3 DUP2 SUB PUSH1 0x60 DUP5 ADD MSTORE PUSH2 0x3313 DUP2 DUP7 PUSH2 0x324D JUMP JUMPDEST SWAP1 POP DUP3 DUP2 SUB PUSH1 0x80 DUP5 ADD MSTORE PUSH2 0x3327 DUP2 DUP6 PUSH2 0x3288 JUMP JUMPDEST SWAP9 SWAP8 POP POP POP POP POP POP POP POP JUMP JUMPDEST PUSH1 0x0 PUSH1 0x1 PUSH1 0x1 PUSH1 0xA0 SHL SUB DUP1 DUP9 AND DUP4 MSTORE DUP1 DUP8 AND PUSH1 0x20 DUP5 ADD MSTORE POP DUP5 PUSH1 0x40 DUP4 ADD MSTORE DUP4 PUSH1 0x60 DUP4 ADD MSTORE PUSH1 0xA0 PUSH1 0x80 DUP4 ADD MSTORE PUSH2 0x1BA6 PUSH1 0xA0 DUP4 ADD DUP5 PUSH2 0x3288 JUMP JUMPDEST PUSH1 0x20 DUP2 MSTORE PUSH1 0x0 PUSH2 0x2C04 PUSH1 0x20 DUP4 ADD DUP5 PUSH2 0x324D JUMP JUMPDEST PUSH1 0x40 DUP2 MSTORE PUSH1 0x0 PUSH2 0x3391 PUSH1 0x40 DUP4 ADD DUP6 PUSH2 0x324D JUMP JUMPDEST DUP3 DUP2 SUB PUSH1 0x20 DUP5 ADD MSTORE PUSH2 0x1FE4 DUP2 DUP6 PUSH2 0x324D JUMP JUMPDEST PUSH1 0x20 DUP2 MSTORE PUSH1 0x0 PUSH2 0x2C04 PUSH1 0x20 DUP4 ADD DUP5 PUSH2 0x3288 JUMP JUMPDEST PUSH1 0x0 PUSH8 0xFFFFFFFFFFFFFFFF DUP3 GT ISZERO PUSH2 0x33D0 JUMPI PUSH2 0x33D0 PUSH2 0x34F9 JUMP JUMPDEST POP PUSH1 0x5 SHL PUSH1 0x20 ADD SWAP1 JUMP JUMPDEST PUSH1 0x0 DUP3 NOT DUP3 GT ISZERO PUSH2 0x33ED JUMPI PUSH2 0x33ED PUSH2 0x34CD JUMP JUMPDEST POP ADD SWAP1 JUMP JUMPDEST PUSH1 0x0 DUP3 PUSH2 0x340F JUMPI PUSH4 0x4E487B71 PUSH1 0xE0 SHL PUSH1 0x0 MSTORE PUSH1 0x12 PUSH1 0x4 MSTORE PUSH1 0x24 PUSH1 0x0 REVERT JUMPDEST POP DIV SWAP1 JUMP JUMPDEST PUSH1 0x0 DUP2 PUSH1 0x0 NOT DIV DUP4 GT DUP3 ISZERO ISZERO AND ISZERO PUSH2 0x342E JUMPI PUSH2 0x342E PUSH2 0x34CD JUMP JUMPDEST POP MUL SWAP1 JUMP JUMPDEST PUSH1 0x0 DUP3 DUP3 LT ISZERO PUSH2 0x3445 JUMPI PUSH2 0x3445 PUSH2 0x34CD JUMP JUMPDEST POP SUB SWAP1 JUMP JUMPDEST PUSH1 0x1 DUP2 DUP2 SHR SWAP1 DUP3 AND DUP1 PUSH2 0x345E JUMPI PUSH1 0x7F DUP3 AND SWAP2 POP JUMPDEST PUSH1 0x20 DUP3 LT DUP2 EQ ISZERO PUSH2 0x347F JUMPI PUSH4 0x4E487B71 PUSH1 0xE0 SHL PUSH1 0x0 MSTORE PUSH1 0x22 PUSH1 0x4 MSTORE PUSH1 0x24 PUSH1 0x0 REVERT JUMPDEST POP SWAP2 SWAP1 POP JUMP JUMPDEST PUSH1 0x1F DUP3 ADD PUSH1 0x1F NOT AND DUP2 ADD PUSH8 0xFFFFFFFFFFFFFFFF DUP2 GT DUP3 DUP3 LT OR ISZERO PUSH2 0x34AB JUMPI PUSH2 0x34AB PUSH2 0x34F9 JUMP JUMPDEST PUSH1 0x40 MSTORE POP POP JUMP JUMPDEST PUSH1 0x0 PUSH1 0x0 NOT DUP3 EQ ISZERO PUSH2 0x34C6 JUMPI PUSH2 0x34C6 PUSH2 0x34CD JUMP JUMPDEST POP PUSH1 0x1 ADD SWAP1 JUMP JUMPDEST PUSH4 0x4E487B71 PUSH1 0xE0 SHL PUSH1 0x0 MSTORE PUSH1 0x11 PUSH1 0x4 MSTORE PUSH1 0x24 PUSH1 0x0 REVERT JUMPDEST PUSH4 0x4E487B71 PUSH1 0xE0 SHL PUSH1 0x0 MSTORE PUSH1 0x32 PUSH1 0x4 MSTORE PUSH1 0x24 PUSH1 0x0 REVERT JUMPDEST PUSH4 0x4E487B71 PUSH1 0xE0 SHL PUSH1 0x0 MSTORE PUSH1 0x41 PUSH1 0x4 MSTORE PUSH1 0x24 PUSH1 0x0 REVERT JUMPDEST PUSH1 0x0 PUSH1 0x3 RETURNDATASIZE GT ISZERO PUSH2 0x3528 JUMPI PUSH1 0x4 PUSH1 0x0 DUP1 RETURNDATACOPY POP PUSH1 0x0 MLOAD PUSH1 0xE0 SHR JUMPDEST SWAP1 JUMP JUMPDEST PUSH1 0x0 PUSH1 0x44 RETURNDATASIZE LT ISZERO PUSH2 0x3539 JUMPI SWAP1 JUMP JUMPDEST PUSH1 0x40 MLOAD PUSH1 0x3 NOT RETURNDATASIZE DUP2 ADD PUSH1 0x4 DUP4 RETURNDATACOPY DUP2 MLOAD RETURNDATASIZE PUSH8 0xFFFFFFFFFFFFFFFF DUP2 PUSH1 0x24 DUP5 ADD GT DUP2 DUP5 GT OR ISZERO PUSH2 0x3569 JUMPI POP POP POP POP POP SWAP1 JUMP JUMPDEST DUP3 DUP6 ADD SWAP2 POP DUP2 MLOAD DUP2 DUP2 GT ISZERO PUSH2 0x3581 JUMPI POP POP POP POP POP POP SWAP1 JUMP JUMPDEST DUP5 RETURNDATASIZE DUP8 ADD ADD PUSH1 0x20 DUP3 DUP6 ADD ADD GT ISZERO PUSH2 0x359B JUMPI POP POP POP POP POP POP SWAP1 JUMP JUMPDEST PUSH2 0x35AA PUSH1 0x20 DUP3 DUP7 ADD ADD DUP8 PUSH2 0x3485 JUMP JUMPDEST POP SWAP1 SWAP6 SWAP5 POP POP POP POP POP JUMP JUMPDEST PUSH1 0x1 PUSH1 0x1 PUSH1 0xA0 SHL SUB DUP2 AND DUP2 EQ PUSH2 0x35CA JUMPI PUSH1 0x0 DUP1 REVERT JUMPDEST POP JUMP JUMPDEST DUP1 ISZERO ISZERO DUP2 EQ PUSH2 0x35CA JUMPI PUSH1 0x0 DUP1 REVERT JUMPDEST PUSH1 0x1 PUSH1 0x1 PUSH1 0xE0 SHL SUB NOT DUP2 AND DUP2 EQ PUSH2 0x35CA JUMPI PUSH1 0x0 DUP1 REVERT INVALID LOG2 PUSH5 0x6970667358 0x22 SLT KECCAK256 SWAP5 0xE1 0xAA 0xE8 COINBASE CALLCODE PUSH17 0xC1280C4D22E028ADDEC13D19AD76212B93 PUSH32 0x3940E2DF05B35B64736F6C634300080700330000000000000000000000000000 ",
  "sha1": "640ead036a9551e92c983cd334f82994b3ca5134",
  "source": "\n// SPDX-License-Identifier: MIT\npragma solidity ^0.8.7;\n\nimport \"../libraries/Position.sol\";\nimport \"../libraries/FixedPoint.sol\";\nimport \"@openzeppelin/contracts/token/ERC1155/extensions/ERC1155Supply.sol\";\nimport \"../interfaces/IOverlayV1Market.sol\";\nimport \"../interfaces/IOverlayV1Mothership.sol\";\nimport \"../interfaces/IOverlayToken.sol\";\nimport \"../interfaces/IOverlayTokenNew.sol\";\n\ncontract OverlayV1OVLCollateral is ERC1155Supply {\n\n    event log(string k, uint v);\n    event log_addr(string k, address v);\n\n    using Position for Position.Info;\n    using FixedPoint for uint256;\n\n    bytes32 constant private GOVERNOR = keccak256(\"GOVERNOR\");\n\n    mapping (address => mapping(uint => uint)) internal currentBlockPositionsLong;\n    mapping (address => mapping(uint => uint)) internal currentBlockPositionsShort;\n    mapping (address => MarketInfo) public marketInfo;\n    struct MarketInfo {\n        uint marginMaintenance;\n        uint marginRewardRate;\n        uint maxLeverage;\n    }\n\n    Position.Info[] public positions;\n\n    IOverlayV1Mothership public immutable mothership;\n    IOverlayTokenNew immutable public ovl;\n\n    uint256 public fees;\n    uint256 public liquidations;\n\n    event Build(\n        address market,\n        uint256 positionId,\n        uint256 oi,\n        uint256 debt\n    );\n\n    event Unwind(\n        address market,\n        uint256 positionId,\n        uint256 oi,\n        uint256 debt\n    );\n\n    event Liquidate(\n        uint256 positionId,\n        uint256 oi,\n        uint256 reward,\n        address rewarded\n    );\n\n    event Update(\n        uint feesCollected,\n        uint feesBurned,\n        uint liquidationsCollected,\n        uint liquidationsBurned\n    );\n\n    modifier onlyGovernor () {\n        require(mothership.hasRole(GOVERNOR, msg.sender), \"OVLV1:!governor\");\n        _;\n    }\n\n    constructor (\n        string memory _uri,\n        address _mothership\n    ) ERC1155(_uri) {\n\n        mothership = IOverlayV1Mothership(_mothership);\n\n        ovl = IOverlayV1Mothership(_mothership).ovl();\n\n        positions.push(Position.Info({\n            market: address(0),\n            isLong: false,\n            leverage: 0,\n            pricePoint: 0,\n            oiShares: 0,\n            debt: 0,\n            cost: 0\n        }));\n\n    }\n\n    function setMarketInfo (\n        address _market,\n        uint _marginMaintenance,\n        uint _marginRewardRate,\n        uint _maxLeverage\n    ) external onlyGovernor {\n\n        marketInfo[_market].marginMaintenance = _marginMaintenance;\n        marketInfo[_market].marginRewardRate = _marginRewardRate;\n        marketInfo[_market].maxLeverage = _maxLeverage;\n\n    }\n\n    function marginMaintenance(\n        address _market\n    ) external view returns (\n        uint marginMaintenance_\n    ) {\n\n        marginMaintenance_ = marketInfo[_market].marginMaintenance;\n\n    }\n\n    function maxLeverage(\n        address _market\n    ) external view returns (\n        uint maxLeverage_\n    ) {\n\n        maxLeverage_ = marketInfo[_market].maxLeverage;\n\n    }\n\n    function marginRewardRate(\n        address _market\n    ) external view returns (\n        uint marginRewardRate_\n    ) {\n\n        marginRewardRate_ = marketInfo[_market].marginRewardRate;\n\n    }\n\n\n    /// @notice Disburses fees\n    function disburse () public {\n\n        (   uint256 _marginBurnRate,\n            uint256 _feeBurnRate,\n            address _feeTo ) = mothership.getUpdateParams();\n\n        uint _feeForward = fees;\n        uint _feeBurn = _feeForward.mulUp(_feeBurnRate);\n        _feeForward = _feeForward - _feeBurn;\n\n        uint _liqForward = liquidations;\n        uint _liqBurn = _liqForward.mulUp(_marginBurnRate);\n        _liqForward -= _liqBurn;\n\n        fees = 0;\n        liquidations = 0;\n\n        emit Update(\n            _feeForward,\n            _feeBurn,\n            _liqForward,\n            _liqBurn\n        );\n\n        ovl.burn(address(this), _feeBurn + _liqBurn);\n        ovl.transfer(_feeTo, _feeForward + _liqForward);\n\n    }\n\n    function getCurrentBlockPositionId (\n        address _market,\n        bool _isLong,\n        uint _leverage,\n        uint _pricePointNext\n    ) internal returns (\n        uint positionId_\n    ) {\n\n        mapping(uint=>uint) storage _currentBlockPositions = _isLong\n            ? currentBlockPositionsLong[_market]\n            : currentBlockPositionsShort[_market];\n\n        positionId_ = _currentBlockPositions[_leverage];\n\n        Position.Info storage position = positions[positionId_];\n\n        if (position.pricePoint < _pricePointNext) {\n\n            positions.push(Position.Info({\n                market: _market,\n                isLong: _isLong,\n                leverage: _leverage,\n                pricePoint: _pricePointNext,\n                oiShares: 0,\n                debt: 0,\n                cost: 0\n            }));\n\n            positionId_ = positions.length - 1;\n\n            _currentBlockPositions[_leverage] = positionId_;\n\n        }\n\n    }\n\n\n    /// @notice Build a position on Overlay with OVL collateral\n    /// @dev This interacts with an Overlay Market to register oi and hold \n    /// positions on behalf of users.\n    /// @param _market The address of the desired market to interact with.\n    /// @param _collateral The amount of OVL to use as collateral in the position.\n    /// @param _leverage The amount of leverage to use in the position\n    /// @param _isLong Whether to take out a position on the long or short side.\n    /// @param _oiMinimum Minimum acceptable amount of OI after impact and fees.\n    /// @return positionId_ Id of the built position for on chain convenience.\n    function build (\n        address _market,\n        uint256 _collateral,\n        uint256 _leverage,\n        bool _isLong,\n        uint256 _oiMinimum\n    ) external returns (\n        uint positionId_\n    ) {\n\n        require(mothership.marketActive(_market), \"OVLV1:!market\");\n        require(_leverage <= marketInfo[_market].maxLeverage, \"OVLV1:lev>max\");\n\n        (   uint _oiAdjusted,\n            uint _collateralAdjusted,\n            uint _debtAdjusted,\n            uint _fee,\n            uint _impact,\n            uint _pricePointNext ) = IOverlayV1Market(_market)\n                .enterOI(\n                    _isLong,\n                    _collateral,\n                    _leverage\n                );\n\n        require(_oiAdjusted >= _oiMinimum, \"OVLV1:oi<min\");\n\n        uint _positionId = getCurrentBlockPositionId(\n            _market,\n            _isLong,\n            _leverage,\n            _pricePointNext\n        );\n\n        Position.Info storage pos = positions[_positionId];\n\n        pos.oiShares += _oiAdjusted;\n        pos.cost += _collateralAdjusted;\n        pos.debt += _debtAdjusted;\n\n        fees += _fee;\n\n        emit Build(_market, _positionId, _oiAdjusted, _debtAdjusted);\n\n        ovl.transferFromBurn(msg.sender, address(this), _collateralAdjusted + _fee, _impact);\n\n        // ovl.burn(msg.sender, _impact);\n\n        _mint(msg.sender, _positionId, _oiAdjusted, \"\"); // WARNING: last b/c erc1155 callback\n\n        positionId_ = _positionId;\n\n    }\n\n    /// @notice Unwinds shares of an existing position.\n    /// @dev Interacts with a market contract to realize the PnL on a position.\n    /// @param _positionId Id of the position to be unwound.\n    /// @param _shares Number of shars to unwind from the position.\n    function unwind (\n        uint256 _positionId,\n        uint256 _shares\n    ) external {\n\n        require( 0 < _shares && _shares <= balanceOf(msg.sender, _positionId), \"OVLV1:!shares\");\n\n        Position.Info storage pos = positions[_positionId];\n\n        require(0 < pos.oiShares, \"OVLV1:liquidated\");\n\n        {\n\n        (   uint _oi,\n            uint _oiShares,\n            uint _priceFrame ) = IOverlayV1Market(pos.market)\n                .exitData(\n                    pos.isLong,\n                    pos.pricePoint\n                );\n\n        uint _totalPosShares = totalSupply(_positionId);\n\n        uint _userOiShares = _shares;\n        uint _userNotional = _shares * pos.notional(_oi, _oiShares, _priceFrame) / _totalPosShares;\n        uint _userDebt = _shares * pos.debt / _totalPosShares;\n        uint _userCost = _shares * pos.cost / _totalPosShares;\n        uint _userOi = _shares * pos.oi(_oi, _oiShares) / _totalPosShares;\n\n        emit Unwind(pos.market, _positionId, _userOi, _userDebt);\n\n        // TODO: think through edge case of underwater position ... and fee adjustments ...\n        uint _feeAmount = _userNotional.mulUp(mothership.fee());\n\n        uint _userValueAdjusted = _userNotional - _feeAmount;\n        if (_userValueAdjusted > _userDebt) _userValueAdjusted -= _userDebt;\n        else _userValueAdjusted = 0;\n\n        fees += _feeAmount; // adds to fee pot, which is transferred on update\n\n        pos.debt -= _userDebt;\n        pos.cost -= _userCost;\n        pos.oiShares -= _userOiShares;\n\n        // ovl.transfer(msg.sender, _userCost);\n\n        // mint/burn excess PnL = valueAdjusted - cost\n        if (_userCost < _userValueAdjusted) {\n\n            ovl.transferMint(\n                msg.sender, \n                _userCost, \n                _userValueAdjusted - _userCost\n            );\n\n        } else {\n\n            ovl.transferBurn(\n                msg.sender, \n                _userValueAdjusted, \n                _userCost - _userValueAdjusted\n            );\n\n        }\n\n\n        IOverlayV1Market(pos.market).exitOI(\n            pos.isLong,\n            _userOi,\n            _userOiShares,\n            _userCost < _userValueAdjusted ? _userValueAdjusted - _userCost : 0,\n            _userCost < _userValueAdjusted ? 0 : _userCost - _userValueAdjusted\n        );\n\n        }\n\n        _burn(msg.sender, _positionId, _shares);\n\n    }\n\n    /// @notice Liquidates an existing position.\n    /// @dev Interacts with an Overlay Market to exit all open interest\n    /// associated with a liquidatable positoin.\n    /// @param _positionId ID of the position being liquidated.\n    /// @param _rewardsTo Address to send liquidation reward to.\n    function liquidate (\n        uint256 _positionId,\n        address _rewardsTo\n    ) external {\n\n        Position.Info storage pos = positions[_positionId];\n\n        require(0 < pos.oiShares, \"OVLV1:liquidated\");\n\n        bool _isLong = pos.isLong;\n\n        (   uint _oi,\n            uint _oiShares,\n            uint _priceFrame ) = IOverlayV1Market(pos.market)\n                .exitData(\n                    _isLong,\n                    pos.pricePoint\n                );\n\n        MarketInfo memory _marketInfo = marketInfo[pos.market];\n\n        require(pos.isLiquidatable(\n            _oi,\n            _oiShares,\n            _priceFrame,\n            _marketInfo.marginMaintenance\n        ), \"OVLV1:!liquidatable\");\n\n        uint _value = pos.value(_oi, _oiShares, _priceFrame);\n\n        IOverlayV1Market(pos.market).exitOI(\n            _isLong,\n            pos.oi(_oi, _oiShares),\n            pos.oiShares,\n            0,\n            pos.cost - _value\n        );\n\n        // TODO: which is better on gas\n        pos.oiShares = 0;\n        pos.debt = 0;\n        // positions[positionId].oiShares = 0;\n\n        uint _toReward = _value.mulUp(_marketInfo.marginRewardRate);\n\n        liquidations += _value - _toReward;\n\n        emit Liquidate(\n            _positionId,\n            _oi,\n            _toReward,\n            _rewardsTo\n        );\n\n        // ovl.burn(address(this), pos.cost - _value);\n        ovl.transferBurn(_rewardsTo, _toReward, pos.cost - _value);\n\n    }\n\n\n    /// @notice Retrieves required information from market contract \n    /// to calculate position value with.\n    /// @dev Gets price frame, total open interest and \n    /// total open interest shares from an Overlay market.\n    /// @param _positionId ID of position to determine value of.\n    /// @return value_ Value of the position\n    function value (\n        uint _positionId\n    ) public view returns (\n        uint256 value_\n    ) {\n\n        Position.Info storage pos = positions[_positionId];\n\n        IOverlayV1Market _market = IOverlayV1Market(pos.market);\n\n        (   uint _oi,\n            uint _oiShares,\n            uint _priceFrame ) = _market\n            .positionInfo(\n                pos.isLong,\n                pos.pricePoint\n            );\n\n        value_ = pos.value(\n            _oi,\n            _oiShares,\n            _priceFrame\n        );\n\n    }\n\n}\n",
  "sourcePath": "contracts/collateral/OverlayV1OVLCollateral.sol",
  "type": "contract"
}